{
  "contractName": "Request",
  "abi": [
    {
      "constant": true,
      "inputs": [
        {
          "name": "",
          "type": "bytes32"
        },
        {
          "name": "",
          "type": "uint256"
        }
      ],
      "name": "completedTrips",
      "outputs": [
        {
          "name": "",
          "type": "bytes32"
        }
      ],
      "payable": false,
      "stateMutability": "view",
      "type": "function"
    },
    {
      "constant": true,
      "inputs": [
        {
          "name": "",
          "type": "bytes32"
        },
        {
          "name": "",
          "type": "uint256"
        }
      ],
      "name": "BookedforDriver",
      "outputs": [
        {
          "name": "",
          "type": "bytes32"
        }
      ],
      "payable": false,
      "stateMutability": "view",
      "type": "function"
    },
    {
      "constant": true,
      "inputs": [
        {
          "name": "",
          "type": "bytes32"
        }
      ],
      "name": "trips",
      "outputs": [
        {
          "name": "",
          "type": "address"
        }
      ],
      "payable": false,
      "stateMutability": "view",
      "type": "function"
    },
    {
      "inputs": [],
      "payable": false,
      "stateMutability": "nonpayable",
      "type": "constructor"
    },
    {
      "anonymous": false,
      "inputs": [
        {
          "indexed": false,
          "name": "capacity",
          "type": "uint256"
        },
        {
          "indexed": true,
          "name": "_fieldId",
          "type": "bytes32"
        },
        {
          "indexed": true,
          "name": "tankid",
          "type": "bytes32"
        },
        {
          "indexed": true,
          "name": "disposaltankid",
          "type": "bytes32"
        },
        {
          "indexed": false,
          "name": "_amount",
          "type": "uint256"
        },
        {
          "indexed": false,
          "name": "_tripId",
          "type": "bytes32"
        },
        {
          "indexed": false,
          "name": "_time",
          "type": "uint256"
        },
        {
          "indexed": false,
          "name": "time",
          "type": "uint256"
        },
        {
          "indexed": false,
          "name": "reqtime",
          "type": "uint256"
        },
        {
          "indexed": false,
          "name": "latlon",
          "type": "string"
        }
      ],
      "name": "TripCreated",
      "type": "event"
    },
    {
      "anonymous": false,
      "inputs": [
        {
          "indexed": false,
          "name": "_tripId",
          "type": "bytes32"
        },
        {
          "indexed": true,
          "name": "_truckId",
          "type": "bytes32"
        },
        {
          "indexed": false,
          "name": "_invoice",
          "type": "bytes32"
        }
      ],
      "name": "InvoiceGeneratedFor",
      "type": "event"
    },
    {
      "anonymous": false,
      "inputs": [
        {
          "indexed": true,
          "name": "_truckId",
          "type": "bytes32"
        },
        {
          "indexed": false,
          "name": "tripId",
          "type": "bytes32"
        }
      ],
      "name": "TripCompleted",
      "type": "event"
    },
    {
      "constant": false,
      "inputs": [
        {
          "name": "_capacity",
          "type": "uint256"
        },
        {
          "name": "_fieldId",
          "type": "bytes32"
        },
        {
          "name": "_tankid",
          "type": "bytes32"
        },
        {
          "name": "_disposaltankid",
          "type": "bytes32"
        },
        {
          "name": "latlon",
          "type": "string"
        },
        {
          "name": "_amount",
          "type": "uint256"
        },
        {
          "name": "_hours",
          "type": "uint256"
        },
        {
          "name": "reqtime",
          "type": "uint256"
        }
      ],
      "name": "createTrip",
      "outputs": [],
      "payable": false,
      "stateMutability": "nonpayable",
      "type": "function"
    },
    {
      "constant": false,
      "inputs": [
        {
          "name": "_contract",
          "type": "address"
        }
      ],
      "name": "FetchOnboardContract",
      "outputs": [],
      "payable": false,
      "stateMutability": "nonpayable",
      "type": "function"
    },
    {
      "constant": false,
      "inputs": [
        {
          "name": "_tripId",
          "type": "bytes32"
        }
      ],
      "name": "deleteTrip",
      "outputs": [],
      "payable": false,
      "stateMutability": "nonpayable",
      "type": "function"
    },
    {
      "constant": false,
      "inputs": [
        {
          "name": "_tripId",
          "type": "bytes32"
        },
        {
          "name": "_truckId",
          "type": "bytes32"
        },
        {
          "name": "_invoice",
          "type": "bytes32"
        }
      ],
      "name": "CompletedTrip",
      "outputs": [],
      "payable": false,
      "stateMutability": "nonpayable",
      "type": "function"
    },
    {
      "constant": true,
      "inputs": [
        {
          "name": "_truckId",
          "type": "bytes32"
        }
      ],
      "name": "getAll_Active_Invoices",
      "outputs": [
        {
          "name": "",
          "type": "bytes32[]"
        }
      ],
      "payable": false,
      "stateMutability": "view",
      "type": "function"
    },
    {
      "constant": true,
      "inputs": [],
      "name": "getAllCompletedTrips",
      "outputs": [
        {
          "name": "",
          "type": "bytes32[]"
        }
      ],
      "payable": false,
      "stateMutability": "view",
      "type": "function"
    },
    {
      "constant": false,
      "inputs": [
        {
          "name": "_tripId",
          "type": "bytes32"
        },
        {
          "name": "_sender",
          "type": "address"
        }
      ],
      "name": "deleteOpenTrips",
      "outputs": [
        {
          "name": "",
          "type": "uint256"
        }
      ],
      "payable": false,
      "stateMutability": "nonpayable",
      "type": "function"
    },
    {
      "constant": true,
      "inputs": [],
      "name": "getOpenTrips",
      "outputs": [
        {
          "name": "",
          "type": "bytes32[]"
        }
      ],
      "payable": false,
      "stateMutability": "view",
      "type": "function"
    },
    {
      "constant": false,
      "inputs": [
        {
          "name": "_truckId",
          "type": "bytes32"
        },
        {
          "name": "_tripId",
          "type": "bytes32"
        },
        {
          "name": "_sender",
          "type": "address"
        }
      ],
      "name": "setdriverstatus",
      "outputs": [],
      "payable": false,
      "stateMutability": "nonpayable",
      "type": "function"
    },
    {
      "constant": false,
      "inputs": [
        {
          "name": "_truckId",
          "type": "bytes32"
        },
        {
          "name": "_tripId",
          "type": "bytes32"
        },
        {
          "name": "_sender",
          "type": "address"
        }
      ],
      "name": "TripStarted",
      "outputs": [],
      "payable": false,
      "stateMutability": "nonpayable",
      "type": "function"
    },
    {
      "constant": true,
      "inputs": [
        {
          "name": "_truckId",
          "type": "bytes32"
        }
      ],
      "name": "getActiveTrip",
      "outputs": [
        {
          "name": "",
          "type": "bytes32"
        }
      ],
      "payable": false,
      "stateMutability": "view",
      "type": "function"
    },
    {
      "constant": true,
      "inputs": [
        {
          "name": "_truckId",
          "type": "bytes32"
        }
      ],
      "name": "checkTruckStatus",
      "outputs": [
        {
          "name": "",
          "type": "bool"
        }
      ],
      "payable": false,
      "stateMutability": "view",
      "type": "function"
    },
    {
      "constant": true,
      "inputs": [
        {
          "name": "_truckId",
          "type": "bytes32"
        }
      ],
      "name": "getBookedTrips",
      "outputs": [
        {
          "name": "",
          "type": "bytes32[]"
        }
      ],
      "payable": false,
      "stateMutability": "view",
      "type": "function"
    },
    {
      "constant": false,
      "inputs": [
        {
          "name": "_tripId",
          "type": "bytes32"
        }
      ],
      "name": "acceptedTrips",
      "outputs": [],
      "payable": false,
      "stateMutability": "nonpayable",
      "type": "function"
    },
    {
      "constant": true,
      "inputs": [],
      "name": "getAcceptedTrips",
      "outputs": [
        {
          "name": "",
          "type": "bytes32[]"
        }
      ],
      "payable": false,
      "stateMutability": "view",
      "type": "function"
    },
    {
      "constant": false,
      "inputs": [
        {
          "name": "_truckId",
          "type": "bytes32"
        },
        {
          "name": "_tripId",
          "type": "bytes32"
        },
        {
          "name": "_sender",
          "type": "address"
        }
      ],
      "name": "getInvoicesforDriver",
      "outputs": [],
      "payable": false,
      "stateMutability": "nonpayable",
      "type": "function"
    }
  ],
  "bytecode": "0x608060405234801561001057600080fd5b50336000806101000a81548173ffffffffffffffffffffffffffffffffffffffff021916908373ffffffffffffffffffffffffffffffffffffffff16021790555061473c806100606000396000f3006080604052600436106200011b576000357c0100000000000000000000000000000000000000000000000000000000900463ffffffff168063131b3f5c1462000120578063151db8fb146200017a5780631b56999314620001d45780633a32d22d1462000236578063431e426414620002c15780635ed781d2146200037f5780636327e37914620003cf57806365a7c80c14620004035780637325b8cb146200047457806375a4e40c14620004ba5780638c1c5d1e146200052257806399e7ad5a14620005ad578063a37cca7d146200060f578063a6edfb861462000671578063c22d986b14620006a5578063d209196714620006f5578063d3bbcfbd1462000741578063e457d37414620007b5578063e9b0b6051462000826575b600080fd5b3480156200012d57600080fd5b506200015c60048036038101908080356000191690602001909291908035906020019092919050505062000897565b60405180826000191660001916815260200191505060405180910390f35b3480156200018757600080fd5b50620001b6600480360381019080803560001916906020019092919080359060200190929190505050620008c8565b60405180826000191660001916815260200191505060405180910390f35b348015620001e157600080fd5b506200023460048036038101908080356000191690602001909291908035600019169060200190929190803573ffffffffffffffffffffffffffffffffffffffff169060200190929190505050620008f9565b005b3480156200024357600080fd5b5062000268600480360381019080803560001916906020019092919050505062000a07565b6040518080602001828103825283818151815260200191508051906020019060200280838360005b83811015620002ad57808201518184015260208101905062000290565b505050509050019250505060405180910390f35b348015620002ce57600080fd5b506200037d60048036038101908080359060200190929190803560001916906020019092919080356000191690602001909291908035600019169060200190929190803590602001908201803590602001908080601f016020809104026020016040519081016040528093929190818152602001838380828437820191505050505050919291929080359060200190929190803590602001909291908035906020019092919050505062000a80565b005b3480156200038c57600080fd5b50620003b1600480360381019080803560001916906020019092919050505062000e93565b60405180826000191660001916815260200191505060405180910390f35b348015620003dc57600080fd5b5062000401600480360381019080803560001916906020019092919050505062000eb8565b005b3480156200041057600080fd5b506200041b62000f1c565b6040518080602001828103825283818151815260200191508051906020019060200280838360005b838110156200046057808201518184015260208101905062000443565b505050509050019250505060405180910390f35b3480156200048157600080fd5b50620004b8600480360381019080803573ffffffffffffffffffffffffffffffffffffffff16906020019092919050505062000f7a565b005b348015620004c757600080fd5b506200050c6004803603810190808035600019169060200190929190803573ffffffffffffffffffffffffffffffffffffffff16906020019092919050505062000fff565b6040518082815260200191505060405180910390f35b3480156200052f57600080fd5b5062000554600480360381019080803560001916906020019092919050505062001186565b6040518080602001828103825283818151815260200191508051906020019060200280838360005b83811015620005995780820151818401526020810190506200057c565b505050509050019250505060405180910390f35b348015620005ba57600080fd5b506200060d60048036038101908080356000191690602001909291908035600019169060200190929190803573ffffffffffffffffffffffffffffffffffffffff169060200190929190505050620011ff565b005b3480156200061c57600080fd5b506200066f60048036038101908080356000191690602001909291908035600019169060200190929190803573ffffffffffffffffffffffffffffffffffffffff169060200190929190505050620012ec565b005b3480156200067e57600080fd5b50620006a36004803603810190808035600019169060200190929190505050620013b6565b005b348015620006b257600080fd5b50620006f360048036038101908080356000191690602001909291908035600019169060200190929190803560001916906020019092919050505062001416565b005b3480156200070257600080fd5b5062000727600480360381019080803560001916906020019092919050505062001854565b604051808215151515815260200191505060405180910390f35b3480156200074e57600080fd5b50620007736004803603810190808035600019169060200190929190505050620018b6565b604051808273ffffffffffffffffffffffffffffffffffffffff1673ffffffffffffffffffffffffffffffffffffffff16815260200191505060405180910390f35b348015620007c257600080fd5b50620007cd620018e9565b6040518080602001828103825283818151815260200191508051906020019060200280838360005b8381101562000812578082015181840152602081019050620007f5565b505050509050019250505060405180910390f35b3480156200083357600080fd5b506200083e62001947565b6040518080602001828103825283818151815260200191508051906020019060200280838360005b838110156200088357808201518184015260208101905062000866565b505050509050019250505060405180910390f35b600460205281600052604060002081815481101515620008b357fe5b90600052602060002001600091509150505481565b600d60205281600052604060002081815481101515620008e457fe5b90600052602060002001600091509150505481565b6000818360086000826000191660001916815260200190815260200160002060009054906101000a900473ffffffffffffffffffffffffffffffffffffffff1673ffffffffffffffffffffffffffffffffffffffff168273ffffffffffffffffffffffffffffffffffffffff161415156200097357600080fd5b600d600087600019166000191681526020019081526020016000208054905092508260066000876000191660001916815260200190815260200160002081905550600d60008760001916600019168152602001908152602001600020859080600181540180825580915050906001820390600052602060002001600090919290919091509060001916905550505050505050565b606060106000836000191660001916815260200190815260200160002080548060200260200160405190810160405280929190818152602001828054801562000a7457602002820191906000526020600020905b8154600019168152602001906001019080831162000a5b575b50505050509050919050565b6000806000809054906101000a900473ffffffffffffffffffffffffffffffffffffffff1673ffffffffffffffffffffffffffffffffffffffff163373ffffffffffffffffffffffffffffffffffffffff1614151562000adf57600080fd5b6000600360009054906101000a900473ffffffffffffffffffffffffffffffffffffffff1673ffffffffffffffffffffffffffffffffffffffff161415151562000b2857600080fd5b898989898860405160200180868152602001856000191660001916815260200184600019166000191681526020018360001916600019168152602001828152602001955050505050506040516020818303038152906040526040518082805190602001908083835b60208310151562000bb7578051825260208201915060208101905060208303925062000b90565b6001836020036101000a0380198251168184511680821785525050505050509050019150506040518091039020915062000bf182620019a5565b62000bfc3362001a05565b866000191688600019168a600019167f3ae84b7e4829c4e1bc40c0b25b809bcd4d62e79907bf9a1d077f5128473938218d89878a428b8f60405180888152602001878152602001866000191660001916815260200185815260200184815260200183815260200180602001828103825283818151815260200191508051906020019080838360005b8381101562000ca157808201518184015260208101905062000c84565b50505050905090810190601f16801562000ccf5780820380516001836020036101000a031916815260200191505b509850505050505050505060405180910390a48989878a8a89600360009054906101000a900473ffffffffffffffffffffffffffffffffffffffff16888a62000d1762001b74565b808a8152602001896000191660001916815260200180602001886000191660001916815260200187600019166000191681526020018681526020018573ffffffffffffffffffffffffffffffffffffffff1673ffffffffffffffffffffffffffffffffffffffff1681526020018460001916600019168152602001838152602001828103825289818151815260200191508051906020019080838360005b8381101562000dd257808201518184015260208101905062000db5565b50505050905090810190601f16801562000e005780820380516001836020036101000a031916815260200191505b509a5050505050505050505050604051809103906000f08015801562000e2a573d6000803e3d6000fd5b5090508060086000846000191660001916815260200190815260200160002060006101000a81548173ffffffffffffffffffffffffffffffffffffffff021916908373ffffffffffffffffffffffffffffffffffffffff16021790555050505050505050505050565b6000600f60008360001916600019168152602001908152602001600020549050919050565b600062000ec53362001a05565b60086000836000191660001916815260200190815260200160002060009054906101000a900473ffffffffffffffffffffffffffffffffffffffff1690508073ffffffffffffffffffffffffffffffffffffffff16ff5b6060600980548060200260200160405190810160405280929190818152602001828054801562000f7057602002820191906000526020600020905b8154600019168152602001906001019080831162000f57575b5050505050905090565b80600360006101000a81548173ffffffffffffffffffffffffffffffffffffffff021916908373ffffffffffffffffffffffffffffffffffffffff16021790555080600260006101000a81548173ffffffffffffffffffffffffffffffffffffffff021916908373ffffffffffffffffffffffffffffffffffffffff16021790555050565b600080828460086000826000191660001916815260200190815260200160002060009054906101000a900473ffffffffffffffffffffffffffffffffffffffff1673ffffffffffffffffffffffffffffffffffffffff168273ffffffffffffffffffffffffffffffffffffffff161415156200107a57600080fd5b600560008760001916600019168152602001908152602001600020549250600a83815481101515620010a857fe5b90600052602060002001549550600a6001600a8054905003815481101515620010cd57fe5b9060005260206000200154600a84815481101515620010e857fe5b9060005260206000200181600019169055508260056000600a6001600a80549050038154811015156200111757fe5b90600052602060002001546000191660001916815260200190815260200160002081905550600a6001600a80549050038154811015156200115457fe5b9060005260206000200160009055600a80548091906001900362001179919062001b85565b5082935050505092915050565b6060600d60008360001916600019168152602001908152602001600020805480602002602001604051908101604052809291908181526020018280548015620011f357602002820191906000526020600020905b81546000191681526020019060010190808311620011da575b50505050509050919050565b6000818360086000826000191660001916815260200190815260200160002060009054906101000a900473ffffffffffffffffffffffffffffffffffffffff1673ffffffffffffffffffffffffffffffffffffffff168273ffffffffffffffffffffffffffffffffffffffff161415156200127957600080fd5b7f5472697053746172746564000000000000000000000000000000000000000000925084600f60008860001916600019168152602001908152602001600020816000191690555082600e600088600019166000191681526020019081526020016000208160001916905550505050505050565b808260086000826000191660001916815260200190815260200160002060009054906101000a900473ffffffffffffffffffffffffffffffffffffffff1673ffffffffffffffffffffffffffffffffffffffff168273ffffffffffffffffffffffffffffffffffffffff161415156200136457600080fd5b6010600086600019166000191681526020019081526020016000208490806001815401808255809150509060018203906000526020600020016000909192909190915090600019169055505050505050565b6000600c8054905090508060076000846000191660001916815260200190815260200160002081905550600c8290806001815401808255809150509060018203906000526020600020016000909192909190915090600019169055505050565b6000806004600085600019166000191681526020019081526020016000208590806001815401808255809150509060018203906000526020600020016000909192909190915090600019169055506009859080600181540180825580915050906001820390600052602060002001600090919290919091509060001916905550600e6000856000191660001916815260200190815260200160002060009055600660008660001916600019168152602001908152602001600020549150600d6000856000191660001916815260200190815260200160002082815481101515620014fc57fe5b90600052602060002001549450600d600085600019166000191681526020019081526020016000206001600d6000876000191660001916815260200190815260200160002080549050038154811015156200155357fe5b9060005260206000200154600d60008660001916600019168152602001908152602001600020838154811015156200158757fe5b9060005260206000200181600019169055508160066000600d600088600019166000191681526020019081526020016000206001600d60008a600019166000191681526020019081526020016000208054905003815481101515620015e857fe5b90600052602060002001546000191660001916815260200190815260200160002081905550600d600085600019166000191681526020019081526020016000206001600d6000876000191660001916815260200190815260200160002080549050038154811015156200165757fe5b9060005260206000200160009055600d6000856000191660001916815260200190815260200160002080548091906001900362001695919062001b85565b50600f6000856000191660001916815260200190815260200160002060009055600760008660001916600019168152602001908152602001600020549050600c82815481101515620016e357fe5b90600052602060002001549450600c6001600c80549050038154811015156200170857fe5b9060005260206000200154600c828154811015156200172357fe5b9060005260206000200181600019169055508060076000600c6001600c80549050038154811015156200175257fe5b90600052602060002001546000191660001916815260200190815260200160002081905550600c6001600c80549050038154811015156200178f57fe5b9060005260206000200160009055600c805480919060019003620017b4919062001b85565b5083600019167f22a541362ce3f496fd8bc3135565908c0c3846af021298d743ca2626de0e5e79868560405180836000191660001916815260200182600019166000191681526020019250505060405180910390a283600019167f3b0573fdf305673e8114d0426a187651f0697eadbef0e06aa4308ab45e9a96818660405180826000191660001916815260200191505060405180910390a25050505050565b60007f547269705374617274656400000000000000000000000000000000000000000060001916600e6000846000191660001916815260200190815260200160002054600019161415620018ac5760019050620018b1565b600090505b919050565b60086020528060005260406000206000915054906101000a900473ffffffffffffffffffffffffffffffffffffffff1681565b6060600c8054806020026020016040519081016040528092919081815260200182805480156200193d57602002820191906000526020600020905b8154600019168152602001906001019080831162001924575b5050505050905090565b6060600a8054806020026020016040519081016040528092919081815260200182805480156200199b57602002820191906000526020600020905b8154600019168152602001906001019080831162001982575b5050505050905090565b6000600a8054905090508060056000846000191660001916815260200190815260200160002081905550600a8290806001815401808255809150509060018203906000526020600020016000909192909190915090600019169055505050565b6000600260009054906101000a900473ffffffffffffffffffffffffffffffffffffffff1673ffffffffffffffffffffffffffffffffffffffff1663c614418a836040518263ffffffff167c0100000000000000000000000000000000000000000000000000000000028152600401808273ffffffffffffffffffffffffffffffffffffffff1673ffffffffffffffffffffffffffffffffffffffff168152602001915050602060405180830381600087803b15801562001ac557600080fd5b505af115801562001ada573d6000803e3d6000fd5b505050506040513d602081101562001af157600080fd5b8101908080519060200190929190505050905060011515811515148062001b6457506000809054906101000a900473ffffffffffffffffffffffffffffffffffffffff1673ffffffffffffffffffffffffffffffffffffffff168273ffffffffffffffffffffffffffffffffffffffff16145b151562001b7057600080fd5b5050565b604051612b348062001bdd83390190565b81548183558181111562001baf5781836000526020600020918201910162001bae919062001bb4565b5b505050565b62001bd991905b8082111562001bd557600081600090555060010162001bbb565b5090565b90560060806040523480156200001157600080fd5b5060405162002b3438038062002b348339810180604052810190808051906020019092919080519060200190929190805182019291906020018051906020019092919080519060200190929190805190602001909291908051906020019092919080519060200190929190805190602001909291905050508860036000018190555085600360020181600019169055508460038001816000191690555083600360050181905550816003600601816000191690555087600360010181600019169055508660036004019080519060200190620000ef929190620001cb565b50806003600c018190555082600160006101000a81548173ffffffffffffffffffffffffffffffffffffffff021916908373ffffffffffffffffffffffffffffffffffffffff160217905550336000806101000a81548173ffffffffffffffffffffffffffffffffffffffff021916908373ffffffffffffffffffffffffffffffffffffffff16021790555033600260006101000a81548173ffffffffffffffffffffffffffffffffffffffff021916908373ffffffffffffffffffffffffffffffffffffffff1602179055505050505050505050506200027a565b828054600181600116156101000203166002900490600052602060002090601f016020900481019282601f106200020e57805160ff19168380011785556200023f565b828001600101855582156200023f579182015b828111156200023e57825182559160200191906001019062000221565b5b5090506200024e919062000252565b5090565b6200027791905b808211156200027357600081600090555060010162000259565b5090565b90565b6128aa806200028a6000396000f3006080604052600436106100f1576000357c0100000000000000000000000000000000000000000000000000000000900463ffffffff168063118b7605146100f657806338f17b1c1461014f5780633d6880f8146101c05780634ae1707d1461020f5780635dee3e9b1461026657806368f60f241461027d5780638aff188f146102ae5780638da5cb5b146102fb578063a3b169a414610352578063b1f6f5ec1461038d578063b518ba29146103e6578063b74cb2db1461052d578063c4a8853514610584578063d1a0be1e146105c9578063d598d4c91461061c578063f172d0b814610673578063ff86aa67146106c6575b600080fd5b34801561010257600080fd5b5061013960048036038101908080359060200190929190803560001916906020019092919080359060200190929190505050610701565b6040518082815260200191505060405180910390f35b34801561015b57600080fd5b5061017e6004803603810190808035600019169060200190929190505050610a28565b604051808273ffffffffffffffffffffffffffffffffffffffff1673ffffffffffffffffffffffffffffffffffffffff16815260200191505060405180910390f35b3480156101cc57600080fd5b506101f9600480360381019080803560001916906020019092919080359060200190929190505050610a5b565b6040518082815260200191505060405180910390f35b34801561021b57600080fd5b50610248600480360381019080803560001916906020019092919080359060200190929190505050610cc5565b60405180826000191660001916815260200191505060405180910390f35b34801561027257600080fd5b5061027b610f76565b005b34801561028957600080fd5b506102ac600480360381019080803560001916906020019092919050505061104a565b005b3480156102ba57600080fd5b506102dd60048036038101908080356000191690602001909291905050506111bd565b60405180826000191660001916815260200191505060405180910390f35b34801561030757600080fd5b50610310611635565b604051808273ffffffffffffffffffffffffffffffffffffffff1673ffffffffffffffffffffffffffffffffffffffff16815260200191505060405180910390f35b34801561035e57600080fd5b5061038b60048036038101908080356000191690602001909291908035906020019092919050505061165a565b005b34801561039957600080fd5b506103d060048036038101908080359060200190929190803560001916906020019092919080359060200190929190505050611ab9565b6040518082815260200191505060405180910390f35b3480156103f257600080fd5b506103fb611dba565b604051808f81526020018e600019166000191681526020018d600019166000191681526020018c60001916600019168152602001806020018b81526020018a600019166000191681526020018973ffffffffffffffffffffffffffffffffffffffff1673ffffffffffffffffffffffffffffffffffffffff1681526020018881526020018781526020018681526020018560001916600019168152602001848152602001836000191660001916815260200182810382528c818151815260200191508051906020019080838360005b838110156104e55780820151818401526020810190506104ca565b50505050905090810190601f1680156105125780820380516001836020036101000a031916815260200191505b509f5050505050505050505050505050505060405180910390f35b34801561053957600080fd5b50610542611ecc565b604051808273ffffffffffffffffffffffffffffffffffffffff1673ffffffffffffffffffffffffffffffffffffffff16815260200191505060405180910390f35b34801561059057600080fd5b506105b36004803603810190808035600019169060200190929190505050611ef2565b6040518082815260200191505060405180910390f35b3480156105d557600080fd5b5061061a600480360381019080803590602001909291908035906020019092919080356000191690602001909291908035600019169060200190929190505050611f17565b005b34801561062857600080fd5b50610631612212565b604051808273ffffffffffffffffffffffffffffffffffffffff1673ffffffffffffffffffffffffffffffffffffffff16815260200191505060405180910390f35b34801561067f57600080fd5b506106c4600480360381019080803590602001909291908035600019169060200190929190803560001916906020019092919080359060200190929190505050612238565b005b3480156106d257600080fd5b506106ff600480360381019080803560001916906020019092919080359060200190929190505050612689565b005b6000336000600160009054906101000a900473ffffffffffffffffffffffffffffffffffffffff1673ffffffffffffffffffffffffffffffffffffffff16631ad43fde836040518263ffffffff167c0100000000000000000000000000000000000000000000000000000000028152600401808273ffffffffffffffffffffffffffffffffffffffff1673ffffffffffffffffffffffffffffffffffffffff168152602001915050602060405180830381600087803b1580156107c357600080fd5b505af11580156107d7573d6000803e3d6000fd5b505050506040513d60208110156107ed57600080fd5b8101908080519060200190929190505050905060011515811515141561098b578460036006015460001916816000191614151561082957600080fd5b7f50756d7057617465726174446973706f73616c00000000000000000000000000600019166003600d0154600019161415156108f3576040517f08c379a00000000000000000000000000000000000000000000000000000000081526004018080602001828103825260218152602001807f5761746572204e6f742044756d70656420617420446973706f73616c2053697481526020017f650000000000000000000000000000000000000000000000000000000000000081525060400191505060405180910390fd5b866003600a01819055507f5761746572446973706f736564000000000000000000000000000000000000006003600d0181600019169055507fd3bdf87fed04816bcf83e7e96290a8559756dcef5682825b953b0715a2c7aa0a8787428860405180858152602001846000191660001916815260200183815260200182815260200194505050505060405180910390a186935050610a1f565b6040517f08c379a000000000000000000000000000000000000000000000000000000000815260040180806020018281038252603f8152602001807f5573657220446f65736e74206578697374206f7220646f65736e27742068617681526020017f65207065726d697373696f6e20666f722074686973206f7065726174696f6e0081525060400191505060405180910390fd5b50509392505050565b60116020528060005260406000206000915054906101000a900473ffffffffffffffffffffffffffffffffffffffff1681565b60008033600360070160009054906101000a900473ffffffffffffffffffffffffffffffffffffffff1673ffffffffffffffffffffffffffffffffffffffff168173ffffffffffffffffffffffffffffffffffffffff16141515610abe57600080fd5b7f4c656176654f696c6669656c6400000000000000000000000000000000000000600019166003600d015460001916141515610b62576040517f08c379a000000000000000000000000000000000000000000000000000000000815260040180806020018281038252601a8152602001807f547275636b206861736e74206c656674204f696c2046696c656400000000000081525060200191505060405180910390fd5b4291506003600b0154600019163373ffffffffffffffffffffffffffffffffffffffff167f900f609021f07b7e6a2109cf57fc4920746705a64032d5c1508ac548ada8e8a06003600101546003800154896003600401888b6040518087600019166000191681526020018660001916600019168152602001856000191660001916815260200180602001848152602001838152602001828103825285818154600181600116156101000203166002900481526020019150805460018160011615610100020316600290048015610c795780601f10610c4e57610100808354040283529160200191610c79565b820191906000526020600020905b815481529060010190602001808311610c5c57829003601f168201915b505097505050505050505060405180910390a37f50756d7057617465726174446973706f73616c000000000000000000000000006003600d018160001916905550819250505092915050565b600080600033600360070160009054906101000a900473ffffffffffffffffffffffffffffffffffffffff1673ffffffffffffffffffffffffffffffffffffffff168173ffffffffffffffffffffffffffffffffffffffff16141515610d2a57600080fd5b60006003600a015414158015610d6c57507f5761746572446973706f73656400000000000000000000000000000000000000600019166003600d015460001916145b1515610de0576040517f08c379a00000000000000000000000000000000000000000000000000000000081526004018080602001828103825260058152602001807f77726f6e6700000000000000000000000000000000000000000000000000000081525060200191505060405180910390fd5b4292506003600b0154600019163373ffffffffffffffffffffffffffffffffffffffff167f20fd8d154954cd9b6e3579b378bd233de09816e265ef5bb640c1ead5ea634db660036001015460038001546003600a01548b601260006003600b015460001916600019168152602001908152602001600020548a8d6040518088600019166000191681526020018760001916600019168152602001868152602001856000191660001916815260200184815260200183815260200182815260200197505050505050505060405180910390a37f4c6561766566726f6d446973706f73616c0000000000000000000000000000006003600d018160001916905550610ee8866111bd565b91506000801916826000191614151515610f6a576040517f08c379a000000000000000000000000000000000000000000000000000000000815260040180806020018281038252601d8152602001807f496e766f696365206e6f74206372656174656420636f72726563746c7900000081525060200191505060405180910390fd5b81935050505092915050565b7f4c6561766566726f6d446973706f73616c000000000000000000000000000000600019166003600d01546000191614151561101a576040517f08c379a00000000000000000000000000000000000000000000000000000000081526004018080602001828103825260188152602001807f43616e7420706572666f726d207468697320616374696f6e000000000000000081525060200191505060405180910390fd5b7f496e766f696365205061696400000000000000000000000000000000000000006003600d018160001916905550565b7f50756d7061744f696c6669656c64000000000000000000000000000000000000600019166003600d0154600019161415156110ee576040517f08c379a00000000000000000000000000000000000000000000000000000000081526004018080602001828103825260108152602001807f54726970206e6f7420737461727465640000000000000000000000000000000081525060200191505060405180910390fd5b610e106003600c0154014210151561112657600a601260008360001916600019168152602001908152602001600020819055506111ba565b611c206003600c0154014210151561115e576008601260008360001916600019168152602001908152602001600020819055506111b9565b612a306003600c01540142101515611196576006601260008360001916600019168152602001908152602001600020819055506111b8565b6004601260008360001916600019168152602001908152602001600020819055505b5b5b50565b6000807f4c6561766566726f6d446973706f73616c000000000000000000000000000000600019166003600d015460001916141515611264576040517f08c379a00000000000000000000000000000000000000000000000000000000081526004018080602001828103825260188152602001807f43616e7420706572666f726d207468697320616374696f6e000000000000000081525060200191505060405180910390fd5b826040516020018082600019166000191681526020019150506040516020818303038152906040526040518082805190602001908083835b6020831015156112c1578051825260208201915060208101905060208303925061129c565b6001836020036101000a038019825116818451168082178552505050505050905001915050604051809103902090503060116000856000191660001916815260200190815260200160002060006101000a81548173ffffffffffffffffffffffffffffffffffffffff021916908373ffffffffffffffffffffffffffffffffffffffff160217905550600260009054906101000a900473ffffffffffffffffffffffffffffffffffffffff1673ffffffffffffffffffffffffffffffffffffffff1663c22d986b846003600b0154846040518463ffffffff167c0100000000000000000000000000000000000000000000000000000000028152600401808460001916600019168152602001836000191660001916815260200182600019166000191681526020019350505050600060405180830381600087803b15801561140857600080fd5b505af115801561141c573d6000803e3d6000fd5b50505050600260009054906101000a900473ffffffffffffffffffffffffffffffffffffffff1673ffffffffffffffffffffffffffffffffffffffff1663a37cca7d6003600b015485306040518463ffffffff167c010000000000000000000000000000000000000000000000000000000002815260040180846000191660001916815260200183600019166000191681526020018273ffffffffffffffffffffffffffffffffffffffff1673ffffffffffffffffffffffffffffffffffffffff1681526020019350505050600060405180830381600087803b15801561150257600080fd5b505af1158015611516573d6000803e3d6000fd5b505050506003600b015460001916600360020154600019167f850685466f2f586b02c3544fef7c221122d56dee93fb1b11a83f6850e1d220ef60036000015460036001015460038001546003600801546003600901546003600a01546003600501546003600d01548d601260006003600b015460001916600019168152602001908152602001600020548d42604051808d81526020018c600019166000191681526020018b600019166000191681526020018a81526020018981526020018881526020018781526020018660001916600019168152602001856000191660001916815260200184815260200183600019166000191681526020018281526020019c5050505050505050505050505060405180910390a380915050919050565b6000809054906101000a900473ffffffffffffffffffffffffffffffffffffffff1681565b60006003600b01546000600260009054906101000a900473ffffffffffffffffffffffffffffffffffffffff1673ffffffffffffffffffffffffffffffffffffffff1663d2091967836040518263ffffffff167c0100000000000000000000000000000000000000000000000000000000028152600401808260001916600019168152602001915050602060405180830381600087803b1580156116fd57600080fd5b505af1158015611711573d6000803e3d6000fd5b505050506040513d602081101561172757600080fd5b810190808051906020019092919050505090506000151581151514151561174d57600080fd5b33600360070160009054906101000a900473ffffffffffffffffffffffffffffffffffffffff1673ffffffffffffffffffffffffffffffffffffffff168173ffffffffffffffffffffffffffffffffffffffff161415156117ad57600080fd5b7f6163636570746564000000000000000000000000000000000000000000000000600019166003600d015460001916141515611851576040517f08c379a00000000000000000000000000000000000000000000000000000000081526004018080602001828103825260118152602001807f54726970204e6f7420416363657074656400000000000000000000000000000081525060200191505060405180910390fd5b429350600260009054906101000a900473ffffffffffffffffffffffffffffffffffffffff1673ffffffffffffffffffffffffffffffffffffffff166399e7ad5a6003600b015488306040518463ffffffff167c010000000000000000000000000000000000000000000000000000000002815260040180846000191660001916815260200183600019166000191681526020018273ffffffffffffffffffffffffffffffffffffffff1673ffffffffffffffffffffffffffffffffffffffff1681526020019350505050600060405180830381600087803b15801561193657600080fd5b505af115801561194a573d6000803e3d6000fd5b505050506003600b0154600019163373ffffffffffffffffffffffffffffffffffffffff167fcb0654cfa7c5317373f1a2a91865c3cd2470aa8e604b29e964c87bb2af7af84f60036001015460038001548a60036004018a8c6040518087600019166000191681526020018660001916600019168152602001856000191660001916815260200180602001848152602001838152602001828103825285818154600181600116156101000203166002900481526020019150805460018160011615610100020316600290048015611a625780601f10611a3757610100808354040283529160200191611a62565b820191906000526020600020905b815481529060010190602001808311611a4557829003601f168201915b505097505050505050505060405180910390a37f50756d7061744f696c6669656c640000000000000000000000000000000000006003600d018160001916905550611ab16003600b015461104a565b505050505050565b6000336000600160009054906101000a900473ffffffffffffffffffffffffffffffffffffffff1673ffffffffffffffffffffffffffffffffffffffff1663544e3fa0836040518263ffffffff167c0100000000000000000000000000000000000000000000000000000000028152600401808273ffffffffffffffffffffffffffffffffffffffff1673ffffffffffffffffffffffffffffffffffffffff168152602001915050602060405180830381600087803b158015611b7b57600080fd5b505af1158015611b8f573d6000803e3d6000fd5b505050506040513d6020811015611ba557600080fd5b81019080805190602001909291905050509050600115158115151415611d1d5784600360060154600019168160001916141515611be157600080fd5b7f50756d7061744f696c6669656c64000000000000000000000000000000000000600019166003600d015460001916141515611c85576040517f08c379a000000000000000000000000000000000000000000000000000000000815260040180806020018281038252601d8152602001807f5761746572204e6f742050756d706564206174204f696c204669656c6400000081525060200191505060405180910390fd5b866003600901819055507f576174657250756d7065640000000000000000000000000000000000000000006003600d0181600019169055507f85e084d5606606c55553e1ce61796339f52523a5c97278b476fb3c9337cf805a8787428860405180858152602001846000191660001916815260200183815260200182815260200194505050505060405180910390a186935050611db1565b6040517f08c379a000000000000000000000000000000000000000000000000000000000815260040180806020018281038252603f8152602001807f5573657220446f65736e74206578697374206f7220646f65736e27742068617681526020017f65207065726d697373696f6e20666f722074686973206f7065726174696f6e0081525060400191505060405180910390fd5b50509392505050565b6003806000015490806001015490806002015490806003015490806004018054600181600116156101000203166002900480601f016020809104026020016040519081016040528092919081815260200182805460018160011615610100020316600290048015611e6c5780601f10611e4157610100808354040283529160200191611e6c565b820191906000526020600020905b815481529060010190602001808311611e4f57829003601f168201915b5050505050908060050154908060060154908060070160009054906101000a900473ffffffffffffffffffffffffffffffffffffffff169080600801549080600901549080600a01549080600b01549080600c01549080600d015490508e565b600260009054906101000a900473ffffffffffffffffffffffffffffffffffffffff1681565b6000601260008360001916600019168152602001908152602001600020549050919050565b336000600160009054906101000a900473ffffffffffffffffffffffffffffffffffffffff1673ffffffffffffffffffffffffffffffffffffffff1663bce89b4c836040518263ffffffff167c0100000000000000000000000000000000000000000000000000000000028152600401808273ffffffffffffffffffffffffffffffffffffffff1673ffffffffffffffffffffffffffffffffffffffff168152602001915050602060405180830381600087803b158015611fd757600080fd5b505af1158015611feb573d6000803e3d6000fd5b505050506040513d602081101561200157600080fd5b810190808051906020019092919050505090506001151581151514156121765760006003600d0154600019161415156120a2576040517f08c379a000000000000000000000000000000000000000000000000000000000815260040180806020018281038252601b8152602001807f43616e2774204d6f6469667920616e204163746976652054726970000000000081525060200191505060405180910390fd5b82600019166003600601546000191614156120dd57856003600001819055508460036005018190555083600380018160001916905550612171565b6040517f08c379a000000000000000000000000000000000000000000000000000000000815260040180806020018281038252602c8152602001807f596f752061726520747279696e6720746f206d6f646966792061206e6f6e2d6581526020017f78697374616e742074726970000000000000000000000000000000000000000081525060400191505060405180910390fd5b61220a565b6040517f08c379a00000000000000000000000000000000000000000000000000000000081526004018080602001828103825260228152602001807f5761737465204d616e6167656d656e74205573657220446f65736e742065786981526020017f737400000000000000000000000000000000000000000000000000000000000081525060400191505060405180910390fd5b505050505050565b600160009054906101000a900473ffffffffffffffffffffffffffffffffffffffff1681565b8160036006015460001916816000191614151561225457600080fd5b60006003600d0154600019161415156122d5576040517f08c379a000000000000000000000000000000000000000000000000000000000815260040180806020018281038252600d8152602001807f54726970204e6f7420467265650000000000000000000000000000000000000081525060200191505060405180910390fd5b33600360070160006101000a81548173ffffffffffffffffffffffffffffffffffffffff021916908373ffffffffffffffffffffffffffffffffffffffff160217905550836003600b018160001916905550846003600801819055507f61636365707465640000000000000000000000000000000000000000000000006003600d018160001916905550600260009054906101000a900473ffffffffffffffffffffffffffffffffffffffff1673ffffffffffffffffffffffffffffffffffffffff166375a4e40c84306040518363ffffffff167c01000000000000000000000000000000000000000000000000000000000281526004018083600019166000191681526020018273ffffffffffffffffffffffffffffffffffffffff1673ffffffffffffffffffffffffffffffffffffffff16815260200192505050602060405180830381600087803b15801561242c57600080fd5b505af1158015612440573d6000803e3d6000fd5b505050506040513d602081101561245657600080fd5b810190808051906020019092919050505050600260009054906101000a900473ffffffffffffffffffffffffffffffffffffffff1673ffffffffffffffffffffffffffffffffffffffff1663a6edfb86846040518263ffffffff167c0100000000000000000000000000000000000000000000000000000000028152600401808260001916600019168152602001915050600060405180830381600087803b15801561250157600080fd5b505af1158015612515573d6000803e3d6000fd5b50505050600260009054906101000a900473ffffffffffffffffffffffffffffffffffffffff1673ffffffffffffffffffffffffffffffffffffffff16631b5699938585306040518463ffffffff167c010000000000000000000000000000000000000000000000000000000002815260040180846000191660001916815260200183600019166000191681526020018273ffffffffffffffffffffffffffffffffffffffff1673ffffffffffffffffffffffffffffffffffffffff1681526020019350505050600060405180830381600087803b1580156125f657600080fd5b505af115801561260a573d6000803e3d6000fd5b505050507f5a95fc4ef8b4db4cda451d9d37b0336fa5960cba835400dcbaa2a7cad045fa8685858560036005015442876040518087815260200186600019166000191681526020018560001916600019168152602001848152602001838152602001828152602001965050505050505060405180910390a15050505050565b600033600360070160009054906101000a900473ffffffffffffffffffffffffffffffffffffffff1673ffffffffffffffffffffffffffffffffffffffff168173ffffffffffffffffffffffffffffffffffffffff161415156126eb57600080fd5b60006003600901541415801561272d57507f576174657250756d706564000000000000000000000000000000000000000000600019166003600d015460001916145b15156127a1576040517f08c379a00000000000000000000000000000000000000000000000000000000081526004018080602001828103825260178152602001807f576174657246696c6c6564206e6f74205570646174656400000000000000000081525060200191505060405180910390fd5b4291506003600b0154600019163373ffffffffffffffffffffffffffffffffffffffff167f29fcb7a081213c4e59ce0c560a55d83c6f352d3162076c619e514bae3f0e1981600360010154600380015460036009015489888a60405180876000191660001916815260200186600019166000191681526020018581526020018460001916600019168152602001838152602001828152602001965050505050505060405180910390a37f4c656176654f696c6669656c64000000000000000000000000000000000000006003600d018160001916905550505050505600a165627a7a72305820838c1af0462cc5af869db33803bba7275145ce6ead6d3948c3f8bf21c95b77cc0029a165627a7a723058203df412c4204eb0f06f7c63b91a94115c5c8e6728164ad7fd36ad2779f885f8a40029",
  "source": "pragma solidity ^0.4.24;\n\nimport \"./Trip.sol\";\nimport \"./Services.sol\";\n\ncontract Request {\n    \n    address owner;\n    address reputationaddr;\n    Services service;\n    address serviceaddr;\n    mapping(bytes32 => bytes32[]) public completedTrips;\n    mapping (bytes32 => uint256) arrayIndexes;\n    mapping (bytes32 => uint256) activetripindex;\n    mapping (bytes32 => uint256) accceptedtripindex;\n    mapping(bytes32=> address) public trips;\n    bytes32[] TripsCompleted;\n    bytes32[] OpenTrips;\n    bytes32[] Active_Trips;\n    bytes32[] AcceptedTrips;\n    mapping(bytes32 => bytes32[]) public BookedforDriver;\n    mapping(bytes32 => bytes32) TruckStatus;\n    mapping(bytes32 => bytes32) ActiveTripsforDriver;\n    mapping(bytes32 => bytes32[]) InvoicesofDriver;\n    \n    constructor() public{\n        \n        owner = msg.sender;\n    }\n    \n    modifier onboard(){\n        \n        require( serviceaddr != 0x00);\n        _;\n        \n    }\n    \n    event TripCreated(uint capacity,bytes32 indexed _fieldId, bytes32 indexed tankid,bytes32 indexed disposaltankid,uint _amount,bytes32 _tripId,uint _time,uint time,uint reqtime,string latlon);\n    event InvoiceGeneratedFor(bytes32 _tripId,bytes32 indexed _truckId,bytes32 _invoice);\n    event TripCompleted(bytes32 indexed _truckId,bytes32 tripId);\n\n    function checkwatermgmtuser(address _watermgmtuser) private view\n    {\n     bool _res = service.checkWasteMgmt(_watermgmtuser);\n     require(_res == true || _watermgmtuser == owner);\n    }\n   \n    modifier onlyOwner {\n        \n        require(msg.sender == owner);\n        _;\n    \n    }\n    \n    modifier checkorigin(address _sender, bytes32 _tripId)\n    {\n        require(_sender == trips[_tripId]);\n        _;\n    }\n    \n    function createTrip(uint _capacity,bytes32 _fieldId,bytes32 _tankid,bytes32 _disposaltankid,string latlon,uint _amount,uint _hours,uint reqtime) public onlyOwner() onboard(){\n        bytes32 tripId = keccak256(abi.encodePacked(_capacity,_fieldId,_tankid,_disposaltankid,_amount));\n        createOpenTrips(tripId);\n        checkwatermgmtuser(msg.sender);\n        emit TripCreated(_capacity,_fieldId,_tankid,_disposaltankid,_amount,tripId,_hours,block.timestamp,reqtime,latlon);\n        address trip = new Trip(_capacity,_fieldId,latlon,_tankid,_disposaltankid,_amount,serviceaddr,tripId,reqtime);\n        trips[tripId] = trip;\n        Trip(trip);\n    }\n    \n    function createOpenTrips(bytes32 _tripId) private {\n        uint id = OpenTrips.length;\n        arrayIndexes[_tripId] = id;\n        OpenTrips.push(_tripId);\n    }\n    \n    function FetchOnboardContract(address _contract) public{\n        \n        serviceaddr = _contract;\n        service = Services(_contract);\n    }\n    \n    function deleteTrip(bytes32 _tripId) public \n    {\n        checkwatermgmtuser(msg.sender);\n        address tripcontract = trips[_tripId];\n        selfdestruct(tripcontract);\n        \n    }\n    \n    function CompletedTrip(bytes32 _tripId,bytes32 _truckId,bytes32 _invoice) public\n    {\n       completedTrips[_truckId].push(_tripId);\n       TripsCompleted.push(_tripId);\n       delete TruckStatus[_truckId];\n\n       uint id = activetripindex[_tripId]; \n       _tripId = BookedforDriver[_truckId][id];\n       BookedforDriver[_truckId][id] = BookedforDriver[_truckId][BookedforDriver[_truckId].length - 1];\n       activetripindex[BookedforDriver[_truckId][BookedforDriver[_truckId].length - 1]] = id;\n       delete BookedforDriver[_truckId][BookedforDriver[_truckId].length - 1];\n       BookedforDriver[_truckId].length--;\n\n       delete ActiveTripsforDriver[_truckId];\n\n       uint idd = accceptedtripindex[_tripId]; \n       _tripId = AcceptedTrips[id];\n       AcceptedTrips[idd] = AcceptedTrips[AcceptedTrips.length - 1];\n       accceptedtripindex[AcceptedTrips[AcceptedTrips.length - 1]] = idd;\n       delete AcceptedTrips[AcceptedTrips.length - 1];\n       AcceptedTrips.length--;\n       \n       emit InvoiceGeneratedFor(_tripId,_truckId,_invoice);\n       emit TripCompleted(_truckId,_tripId);\n    }\n    \n    function getAll_Active_Invoices(bytes32 _truckId) public view returns(bytes32[])\n    {\n        return InvoicesofDriver[_truckId];\n    }\n    \n    function getAllCompletedTrips() public view returns(bytes32[])\n    {\n        return TripsCompleted;\n    }\n    \n    function deleteOpenTrips(bytes32 _tripId,address _sender) public checkorigin(_sender,_tripId) returns(uint){\n        uint id = arrayIndexes[_tripId]; \n        _tripId = OpenTrips[id];\n        OpenTrips[id] = OpenTrips[OpenTrips.length - 1];\n        arrayIndexes[OpenTrips[OpenTrips.length - 1]] = id;\n        delete OpenTrips[OpenTrips.length - 1];\n        OpenTrips.length--;\n        return id;\n    }\n\n    function getOpenTrips() public view returns(bytes32[])\n    {\n        return OpenTrips;\n    }\n    \n    function setdriverstatus(bytes32 _truckId,bytes32 _tripId, address _sender) public checkorigin(_sender,_tripId)\n    {\n        uint id =  BookedforDriver[_truckId].length;\n        activetripindex[_tripId] = id;\n        BookedforDriver[_truckId].push(_tripId); \n    }\n    \n    function TripStarted(bytes32 _truckId,bytes32 _tripId,address _sender) public checkorigin(_sender,_tripId)\n    {\n        bytes32 _status = bytes32(\"TripStarted\");\n        ActiveTripsforDriver[_truckId] = _tripId;\n        TruckStatus[_truckId] = _status;\n    }\n    \n    function getActiveTrip(bytes32 _truckId) public view returns(bytes32)\n    {\n        return ActiveTripsforDriver[_truckId];\n    }\n    \n    function checkTruckStatus(bytes32 _truckId) public view returns(bool)\n    {\n        if(TruckStatus[_truckId] == bytes32(\"TripStarted\"))\n        {\n        return true;\n        }\n        else{\n            return false;\n        }\n    }\n    \n    function getBookedTrips(bytes32 _truckId) public view returns(bytes32[])\n    {\n        return BookedforDriver[_truckId];\n    }\n    \n    function acceptedTrips(bytes32 _tripId) public\n    {\n        uint id = AcceptedTrips.length;\n        accceptedtripindex[_tripId] = id;\n        AcceptedTrips.push(_tripId);   \n    }\n    \n    function getAcceptedTrips() public view returns(bytes32[])\n    {\n        return AcceptedTrips;\n    }\n    \n    function getInvoicesforDriver(bytes32 _truckId,bytes32 _tripId,address _sender) public checkorigin(_sender,_tripId)\n    {\n        InvoicesofDriver[_truckId].push(_tripId);    \n    }\n    \n}\n",
  "sourcePath": "/home/rakshamp/Desktop/soliditycontracts/waste-water-management/blockchain/contracts/Request.sol",
  "compiler": {
    "name": "solc",
    "version": "0.4.24+commit.e67f0147.Emscripten.clang"
  },
  "schemaVersion": "2.0.0",
  "updatedAt": "2018-08-10T06:09:13.475Z"
}