{
  "contractName": "Services",
  "abi": [
    {
      "constant": true,
      "inputs": [],
      "name": "owner",
      "outputs": [
        {
          "name": "",
          "type": "address"
        }
      ],
      "payable": false,
      "stateMutability": "view",
      "type": "function"
    },
    {
      "inputs": [],
      "payable": false,
      "stateMutability": "nonpayable",
      "type": "constructor"
    },
    {
      "constant": false,
      "inputs": [
        {
          "name": "_optimizer",
          "type": "address"
        }
      ],
      "name": "OnboardOptimization",
      "outputs": [],
      "payable": false,
      "stateMutability": "nonpayable",
      "type": "function"
    },
    {
      "constant": false,
      "inputs": [
        {
          "name": "_storageuser",
          "type": "address"
        }
      ],
      "name": "OnboardStorage",
      "outputs": [],
      "payable": false,
      "stateMutability": "nonpayable",
      "type": "function"
    },
    {
      "constant": false,
      "inputs": [
        {
          "name": "_disposaluser",
          "type": "address"
        }
      ],
      "name": "OnboardDisposal",
      "outputs": [],
      "payable": false,
      "stateMutability": "nonpayable",
      "type": "function"
    },
    {
      "constant": false,
      "inputs": [
        {
          "name": "_wastemanagement",
          "type": "address"
        }
      ],
      "name": "OnboardWasteMgmt",
      "outputs": [],
      "payable": false,
      "stateMutability": "nonpayable",
      "type": "function"
    },
    {
      "constant": true,
      "inputs": [
        {
          "name": "_optimizer",
          "type": "address"
        }
      ],
      "name": "checkOptimizer",
      "outputs": [
        {
          "name": "",
          "type": "bool"
        }
      ],
      "payable": false,
      "stateMutability": "view",
      "type": "function"
    },
    {
      "constant": true,
      "inputs": [
        {
          "name": "_storageuser",
          "type": "address"
        }
      ],
      "name": "checkStorage",
      "outputs": [
        {
          "name": "",
          "type": "bool"
        }
      ],
      "payable": false,
      "stateMutability": "view",
      "type": "function"
    },
    {
      "constant": true,
      "inputs": [
        {
          "name": "_disposaluser",
          "type": "address"
        }
      ],
      "name": "checkDisposal",
      "outputs": [
        {
          "name": "",
          "type": "bool"
        }
      ],
      "payable": false,
      "stateMutability": "view",
      "type": "function"
    },
    {
      "constant": true,
      "inputs": [
        {
          "name": "_wastemanagement",
          "type": "address"
        }
      ],
      "name": "checkWasteMgmt",
      "outputs": [
        {
          "name": "",
          "type": "bool"
        }
      ],
      "payable": false,
      "stateMutability": "view",
      "type": "function"
    }
  ],
  "bytecode": "0x608060405273ca35b7d915458ef540ade6068dfe2f44e8fa733c600560006101000a81548173ffffffffffffffffffffffffffffffffffffffff021916908373ffffffffffffffffffffffffffffffffffffffff16021790555034801561006557600080fd5b5033600460006101000a81548173ffffffffffffffffffffffffffffffffffffffff021916908373ffffffffffffffffffffffffffffffffffffffff160217905550610931806100b66000396000f300608060405260043610610099576000357c0100000000000000000000000000000000000000000000000000000000900463ffffffff1680631ad43fde1461009e578063544e3fa0146100f957806375e9a6da146101545780638da5cb5b14610197578063aa30e148146101ee578063b90ff3a714610231578063bce89b4c14610274578063c614418a146102cf578063ef714db41461032a575b600080fd5b3480156100aa57600080fd5b506100df600480360381019080803573ffffffffffffffffffffffffffffffffffffffff16906020019092919050505061036d565b604051808215151515815260200191505060405180910390f35b34801561010557600080fd5b5061013a600480360381019080803573ffffffffffffffffffffffffffffffffffffffff169060200190929190505050610418565b604051808215151515815260200191505060405180910390f35b34801561016057600080fd5b50610195600480360381019080803573ffffffffffffffffffffffffffffffffffffffff1690602001909291905050506104c3565b005b3480156101a357600080fd5b506101ac610575565b604051808273ffffffffffffffffffffffffffffffffffffffff1673ffffffffffffffffffffffffffffffffffffffff16815260200191505060405180910390f35b3480156101fa57600080fd5b5061022f600480360381019080803573ffffffffffffffffffffffffffffffffffffffff16906020019092919050505061059b565b005b34801561023d57600080fd5b50610272600480360381019080803573ffffffffffffffffffffffffffffffffffffffff16906020019092919050505061064d565b005b34801561028057600080fd5b506102b5600480360381019080803573ffffffffffffffffffffffffffffffffffffffff1690602001909291905050506106ff565b604051808215151515815260200191505060405180910390f35b3480156102db57600080fd5b50610310600480360381019080803573ffffffffffffffffffffffffffffffffffffffff1690602001909291905050506107a9565b604051808215151515815260200191505060405180910390f35b34801561033657600080fd5b5061036b600480360381019080803573ffffffffffffffffffffffffffffffffffffffff169060200190929190505050610854565b005b60008173ffffffffffffffffffffffffffffffffffffffff16600160008473ffffffffffffffffffffffffffffffffffffffff1673ffffffffffffffffffffffffffffffffffffffff16815260200190815260200160002060000160009054906101000a900473ffffffffffffffffffffffffffffffffffffffff1673ffffffffffffffffffffffffffffffffffffffff16141561040e5760019050610413565b600090505b919050565b60008173ffffffffffffffffffffffffffffffffffffffff16600260008473ffffffffffffffffffffffffffffffffffffffff1673ffffffffffffffffffffffffffffffffffffffff16815260200190815260200160002060000160009054906101000a900473ffffffffffffffffffffffffffffffffffffffff1673ffffffffffffffffffffffffffffffffffffffff1614156104b957600190506104be565b600090505b919050565b6020604051908101604052808273ffffffffffffffffffffffffffffffffffffffff16815250600160008373ffffffffffffffffffffffffffffffffffffffff1673ffffffffffffffffffffffffffffffffffffffff16815260200190815260200160002060008201518160000160006101000a81548173ffffffffffffffffffffffffffffffffffffffff021916908373ffffffffffffffffffffffffffffffffffffffff16021790555090505050565b600460009054906101000a900473ffffffffffffffffffffffffffffffffffffffff1681565b6020604051908101604052808273ffffffffffffffffffffffffffffffffffffffff16815250600360008373ffffffffffffffffffffffffffffffffffffffff1673ffffffffffffffffffffffffffffffffffffffff16815260200190815260200160002060008201518160000160006101000a81548173ffffffffffffffffffffffffffffffffffffffff021916908373ffffffffffffffffffffffffffffffffffffffff16021790555090505050565b6020604051908101604052808273ffffffffffffffffffffffffffffffffffffffff16815250600260008373ffffffffffffffffffffffffffffffffffffffff1673ffffffffffffffffffffffffffffffffffffffff16815260200190815260200160002060008201518160000160006101000a81548173ffffffffffffffffffffffffffffffffffffffff021916908373ffffffffffffffffffffffffffffffffffffffff16021790555090505050565b60008173ffffffffffffffffffffffffffffffffffffffff166000808473ffffffffffffffffffffffffffffffffffffffff1673ffffffffffffffffffffffffffffffffffffffff16815260200190815260200160002060000160009054906101000a900473ffffffffffffffffffffffffffffffffffffffff1673ffffffffffffffffffffffffffffffffffffffff16141561079f57600190506107a4565b600090505b919050565b60008173ffffffffffffffffffffffffffffffffffffffff16600360008473ffffffffffffffffffffffffffffffffffffffff1673ffffffffffffffffffffffffffffffffffffffff16815260200190815260200160002060000160009054906101000a900473ffffffffffffffffffffffffffffffffffffffff1673ffffffffffffffffffffffffffffffffffffffff16141561084a576001905061084f565b600090505b919050565b6020604051908101604052808273ffffffffffffffffffffffffffffffffffffffff168152506000808373ffffffffffffffffffffffffffffffffffffffff1673ffffffffffffffffffffffffffffffffffffffff16815260200190815260200160002060008201518160000160006101000a81548173ffffffffffffffffffffffffffffffffffffffff021916908373ffffffffffffffffffffffffffffffffffffffff160217905550905050505600a165627a7a72305820bc02d734895f7adb7149579eed83c80c38476c3c1a49bb0d27a8decd9b4827ab0029",
  "source": "pragma solidity ^0.4.24;\n\ncontract Services{\n\n    struct Optimization{\n        address optimizationservice;\n    }\n     \n    struct Disposal{\n        address disposalservice;\n    }\n    \n    struct Storage{\n        address storageservice;\n    }\n    \n    struct WasteMgmt{\n        address wastemanagement;\n    }\n    \n    mapping(address => Optimization) Optimizations;\n    mapping(address => Disposal) DisposalUsers;\n    mapping(address => Storage) StorageUsers;\n    mapping(address => WasteMgmt) WasteMgmtUsers;\n    \n    address public owner;\n    address private user = 0xCA35b7d915458EF540aDe6068dFe2F44E8fa733c;\n    \n    constructor() public{\n        \n        owner = msg.sender;\n    }\n    \n    modifier User(address _user)\n    {\n        require (_user == user);\n        _;\n    }\n    \n    function OnboardOptimization(address _optimizer)public {\n        \n        Optimizations[_optimizer] = Optimization(_optimizer);\n        \n    }\n    \n    function OnboardStorage(address _storageuser)public {\n        \n        StorageUsers[_storageuser] = Storage(_storageuser);\n        \n    }\n    \n    function OnboardDisposal(address _disposaluser)public {\n        \n        DisposalUsers[_disposaluser] = Disposal(_disposaluser);\n        \n    }\n    \n    function OnboardWasteMgmt(address _wastemanagement) public {\n        \n        WasteMgmtUsers[_wastemanagement] = WasteMgmt(_wastemanagement);\n    }\n    \n    function checkOptimizer(address _optimizer) public view returns(bool)\n    {\n        if(Optimizations[_optimizer].optimizationservice == _optimizer)\n        {\n            return true;\n        }\n        else{\n            return false;\n        }\n    }\n    \n    function checkStorage(address _storageuser) public view returns(bool)\n    {\n        if(StorageUsers[_storageuser].storageservice == _storageuser)\n        {\n            return true;\n        }\n        else{\n            return false;\n        }\n    }\n    \n    function checkDisposal(address _disposaluser) public view returns(bool)\n    {\n        if(DisposalUsers[_disposaluser].disposalservice == _disposaluser)\n        {\n            return true;\n        }\n        else{\n            return false;\n        }\n    }\n    \n     function checkWasteMgmt(address _wastemanagement) public view returns(bool)\n    {\n        if(WasteMgmtUsers[_wastemanagement].wastemanagement == _wastemanagement)\n        {\n            return true;\n        }\n        else{\n            return false;\n        }\n    }\n    \n}\n",
  "sourcePath": "/home/rakshamp/Desktop/soliditycontracts/waste-water-management/blockchain/contracts/Services.sol",
  "compiler": {
    "name": "solc",
    "version": "0.4.24+commit.e67f0147.Emscripten.clang"
  },
  "schemaVersion": "2.0.0",
  "updatedAt": "2018-08-10T06:09:13.468Z"
}