{
  "contractName": "Trip",
  "abi": [
    {
      "constant": true,
      "inputs": [
        {
          "name": "",
          "type": "bytes32"
        }
      ],
      "name": "InvoicesCreated",
      "outputs": [
        {
          "name": "",
          "type": "address"
        }
      ],
      "payable": false,
      "stateMutability": "view",
      "type": "function"
    },
    {
      "constant": true,
      "inputs": [],
      "name": "owner",
      "outputs": [
        {
          "name": "",
          "type": "address"
        }
      ],
      "payable": false,
      "stateMutability": "view",
      "type": "function"
    },
    {
      "constant": true,
      "inputs": [],
      "name": "trip",
      "outputs": [
        {
          "name": "tankCapacity",
          "type": "uint256"
        },
        {
          "name": "fieldId",
          "type": "bytes32"
        },
        {
          "name": "tankId",
          "type": "bytes32"
        },
        {
          "name": "disposalTankId",
          "type": "bytes32"
        },
        {
          "name": "latlon",
          "type": "string"
        },
        {
          "name": "amount",
          "type": "uint256"
        },
        {
          "name": "tripId",
          "type": "bytes32"
        },
        {
          "name": "driver",
          "type": "address"
        },
        {
          "name": "maxcapacity",
          "type": "uint256"
        },
        {
          "name": "waterfilled",
          "type": "uint256"
        },
        {
          "name": "waterdisposed",
          "type": "uint256"
        },
        {
          "name": "truckId",
          "type": "bytes32"
        },
        {
          "name": "reqtime",
          "type": "uint256"
        },
        {
          "name": "Status",
          "type": "bytes32"
        }
      ],
      "payable": false,
      "stateMutability": "view",
      "type": "function"
    },
    {
      "constant": true,
      "inputs": [],
      "name": "requests",
      "outputs": [
        {
          "name": "",
          "type": "address"
        }
      ],
      "payable": false,
      "stateMutability": "view",
      "type": "function"
    },
    {
      "constant": true,
      "inputs": [],
      "name": "service",
      "outputs": [
        {
          "name": "",
          "type": "address"
        }
      ],
      "payable": false,
      "stateMutability": "view",
      "type": "function"
    },
    {
      "inputs": [
        {
          "name": "_tankCapacity",
          "type": "uint256"
        },
        {
          "name": "_fieldId",
          "type": "bytes32"
        },
        {
          "name": "_latlon",
          "type": "string"
        },
        {
          "name": "_tankId",
          "type": "bytes32"
        },
        {
          "name": "_disposalTankId",
          "type": "bytes32"
        },
        {
          "name": "_amount",
          "type": "uint256"
        },
        {
          "name": "_servicecontract",
          "type": "address"
        },
        {
          "name": "_tripId",
          "type": "bytes32"
        },
        {
          "name": "_reqtime",
          "type": "uint256"
        }
      ],
      "payable": false,
      "stateMutability": "nonpayable",
      "type": "constructor"
    },
    {
      "anonymous": false,
      "inputs": [
        {
          "indexed": false,
          "name": "_maxcapacity",
          "type": "uint256"
        },
        {
          "indexed": false,
          "name": "_truckId",
          "type": "bytes32"
        },
        {
          "indexed": false,
          "name": "_tripId",
          "type": "bytes32"
        },
        {
          "indexed": false,
          "name": "_amount",
          "type": "uint256"
        },
        {
          "indexed": false,
          "name": "time",
          "type": "uint256"
        },
        {
          "indexed": false,
          "name": "reqtime",
          "type": "uint256"
        }
      ],
      "name": "TripAccepted",
      "type": "event"
    },
    {
      "anonymous": false,
      "inputs": [
        {
          "indexed": true,
          "name": "_driver",
          "type": "address"
        },
        {
          "indexed": true,
          "name": "_truckId",
          "type": "bytes32"
        },
        {
          "indexed": false,
          "name": "_fieldId",
          "type": "bytes32"
        },
        {
          "indexed": false,
          "name": "_disposalTankId",
          "type": "bytes32"
        },
        {
          "indexed": false,
          "name": "_tripId",
          "type": "bytes32"
        },
        {
          "indexed": false,
          "name": "latlon",
          "type": "string"
        },
        {
          "indexed": false,
          "name": "_time",
          "type": "uint256"
        },
        {
          "indexed": false,
          "name": "reqtime",
          "type": "uint256"
        }
      ],
      "name": "PumpWateratOilfield",
      "type": "event"
    },
    {
      "anonymous": false,
      "inputs": [
        {
          "indexed": true,
          "name": "_driver",
          "type": "address"
        },
        {
          "indexed": true,
          "name": "_truckId",
          "type": "bytes32"
        },
        {
          "indexed": false,
          "name": "_fieldId",
          "type": "bytes32"
        },
        {
          "indexed": false,
          "name": "_disposalTankId",
          "type": "bytes32"
        },
        {
          "indexed": false,
          "name": "_waterfilled",
          "type": "uint256"
        },
        {
          "indexed": false,
          "name": "_tripId",
          "type": "bytes32"
        },
        {
          "indexed": false,
          "name": "_time",
          "type": "uint256"
        },
        {
          "indexed": false,
          "name": "reqtime",
          "type": "uint256"
        }
      ],
      "name": "LeavefromOilfield",
      "type": "event"
    },
    {
      "anonymous": false,
      "inputs": [
        {
          "indexed": true,
          "name": "_driver",
          "type": "address"
        },
        {
          "indexed": true,
          "name": "_truckId",
          "type": "bytes32"
        },
        {
          "indexed": false,
          "name": "_fieldId",
          "type": "bytes32"
        },
        {
          "indexed": false,
          "name": "_disposalTankId",
          "type": "bytes32"
        },
        {
          "indexed": false,
          "name": "_tripId",
          "type": "bytes32"
        },
        {
          "indexed": false,
          "name": "latlon",
          "type": "string"
        },
        {
          "indexed": false,
          "name": "_time",
          "type": "uint256"
        },
        {
          "indexed": false,
          "name": "reqtime",
          "type": "uint256"
        }
      ],
      "name": "PumpWateratDisposal",
      "type": "event"
    },
    {
      "anonymous": false,
      "inputs": [
        {
          "indexed": true,
          "name": "_driver",
          "type": "address"
        },
        {
          "indexed": true,
          "name": "_truckId",
          "type": "bytes32"
        },
        {
          "indexed": false,
          "name": "_fieldId",
          "type": "bytes32"
        },
        {
          "indexed": false,
          "name": "_disposalTankId",
          "type": "bytes32"
        },
        {
          "indexed": false,
          "name": "_waterdisposed",
          "type": "uint256"
        },
        {
          "indexed": false,
          "name": "_tripId",
          "type": "bytes32"
        },
        {
          "indexed": false,
          "name": "_repScore",
          "type": "uint256"
        },
        {
          "indexed": false,
          "name": "_time",
          "type": "uint256"
        },
        {
          "indexed": false,
          "name": "reqtime",
          "type": "uint256"
        }
      ],
      "name": "LeavefromDisposal",
      "type": "event"
    },
    {
      "anonymous": false,
      "inputs": [
        {
          "indexed": false,
          "name": "_tankCapacity",
          "type": "uint256"
        },
        {
          "indexed": false,
          "name": "_fieldId",
          "type": "bytes32"
        },
        {
          "indexed": true,
          "name": "_tankId",
          "type": "bytes32"
        },
        {
          "indexed": false,
          "name": "_disposalTankId",
          "type": "bytes32"
        },
        {
          "indexed": false,
          "name": "_maxcapacity",
          "type": "uint256"
        },
        {
          "indexed": false,
          "name": "_waterfilled",
          "type": "uint256"
        },
        {
          "indexed": false,
          "name": "_waterdisposed",
          "type": "uint256"
        },
        {
          "indexed": false,
          "name": "_amount",
          "type": "uint256"
        },
        {
          "indexed": true,
          "name": "_truckId",
          "type": "bytes32"
        },
        {
          "indexed": false,
          "name": "_Status",
          "type": "bytes32"
        },
        {
          "indexed": false,
          "name": "_tripId",
          "type": "bytes32"
        },
        {
          "indexed": false,
          "name": "_repScore",
          "type": "uint256"
        },
        {
          "indexed": false,
          "name": "_invoiceno",
          "type": "bytes32"
        },
        {
          "indexed": false,
          "name": "time",
          "type": "uint256"
        }
      ],
      "name": "InvoiceGenerated",
      "type": "event"
    },
    {
      "anonymous": false,
      "inputs": [
        {
          "indexed": false,
          "name": "_waterfilled",
          "type": "uint256"
        },
        {
          "indexed": false,
          "name": "_tripId",
          "type": "bytes32"
        },
        {
          "indexed": false,
          "name": "_time",
          "type": "uint256"
        },
        {
          "indexed": false,
          "name": "reqtime",
          "type": "uint256"
        }
      ],
      "name": "Waterfilled",
      "type": "event"
    },
    {
      "anonymous": false,
      "inputs": [
        {
          "indexed": false,
          "name": "_waterdisposed",
          "type": "uint256"
        },
        {
          "indexed": false,
          "name": "_tripId",
          "type": "bytes32"
        },
        {
          "indexed": false,
          "name": "_time",
          "type": "uint256"
        },
        {
          "indexed": false,
          "name": "reqtime",
          "type": "uint256"
        }
      ],
      "name": "Waterdisposed",
      "type": "event"
    },
    {
      "constant": false,
      "inputs": [
        {
          "name": "_capacity",
          "type": "uint256"
        },
        {
          "name": "_amount",
          "type": "uint256"
        },
        {
          "name": "_disposaltankid",
          "type": "bytes32"
        },
        {
          "name": "_tripId",
          "type": "bytes32"
        }
      ],
      "name": "modifyTrip",
      "outputs": [],
      "payable": false,
      "stateMutability": "nonpayable",
      "type": "function"
    },
    {
      "constant": false,
      "inputs": [
        {
          "name": "_maxcapacity",
          "type": "uint256"
        },
        {
          "name": "_truckId",
          "type": "bytes32"
        },
        {
          "name": "_tripId",
          "type": "bytes32"
        },
        {
          "name": "reqtime",
          "type": "uint256"
        }
      ],
      "name": "tripAccept",
      "outputs": [],
      "payable": false,
      "stateMutability": "nonpayable",
      "type": "function"
    },
    {
      "constant": false,
      "inputs": [
        {
          "name": "_tripId",
          "type": "bytes32"
        },
        {
          "name": "reqtime",
          "type": "uint256"
        }
      ],
      "name": "PumpatOilfield",
      "outputs": [],
      "payable": false,
      "stateMutability": "nonpayable",
      "type": "function"
    },
    {
      "constant": false,
      "inputs": [
        {
          "name": "_waterfilled",
          "type": "uint256"
        },
        {
          "name": "_tripId",
          "type": "bytes32"
        },
        {
          "name": "reqtime",
          "type": "uint256"
        }
      ],
      "name": "WaterPumped",
      "outputs": [
        {
          "name": "",
          "type": "uint256"
        }
      ],
      "payable": false,
      "stateMutability": "nonpayable",
      "type": "function"
    },
    {
      "constant": false,
      "inputs": [
        {
          "name": "_tripId",
          "type": "bytes32"
        },
        {
          "name": "reqtime",
          "type": "uint256"
        }
      ],
      "name": "LeaveOilfield",
      "outputs": [],
      "payable": false,
      "stateMutability": "nonpayable",
      "type": "function"
    },
    {
      "constant": false,
      "inputs": [
        {
          "name": "_tripId",
          "type": "bytes32"
        },
        {
          "name": "reqtime",
          "type": "uint256"
        }
      ],
      "name": "PumpatDisposal",
      "outputs": [
        {
          "name": "",
          "type": "uint256"
        }
      ],
      "payable": false,
      "stateMutability": "nonpayable",
      "type": "function"
    },
    {
      "constant": false,
      "inputs": [
        {
          "name": "_waterdisposed",
          "type": "uint256"
        },
        {
          "name": "_tripId",
          "type": "bytes32"
        },
        {
          "name": "reqtime",
          "type": "uint256"
        }
      ],
      "name": "WaterDisposed",
      "outputs": [
        {
          "name": "",
          "type": "uint256"
        }
      ],
      "payable": false,
      "stateMutability": "nonpayable",
      "type": "function"
    },
    {
      "constant": false,
      "inputs": [
        {
          "name": "_tripId",
          "type": "bytes32"
        },
        {
          "name": "reqtime",
          "type": "uint256"
        }
      ],
      "name": "LeaveDisposalSite",
      "outputs": [
        {
          "name": "",
          "type": "bytes32"
        }
      ],
      "payable": false,
      "stateMutability": "nonpayable",
      "type": "function"
    },
    {
      "constant": false,
      "inputs": [
        {
          "name": "_tripId",
          "type": "bytes32"
        }
      ],
      "name": "createInvoice",
      "outputs": [
        {
          "name": "",
          "type": "bytes32"
        }
      ],
      "payable": false,
      "stateMutability": "nonpayable",
      "type": "function"
    },
    {
      "constant": false,
      "inputs": [],
      "name": "invoicePaid",
      "outputs": [],
      "payable": false,
      "stateMutability": "nonpayable",
      "type": "function"
    },
    {
      "constant": false,
      "inputs": [
        {
          "name": "_truckId",
          "type": "bytes32"
        }
      ],
      "name": "reputationScore",
      "outputs": [],
      "payable": false,
      "stateMutability": "nonpayable",
      "type": "function"
    },
    {
      "constant": true,
      "inputs": [
        {
          "name": "_truckId",
          "type": "bytes32"
        }
      ],
      "name": "getReputforTrip",
      "outputs": [
        {
          "name": "",
          "type": "uint256"
        }
      ],
      "payable": false,
      "stateMutability": "view",
      "type": "function"
    }
  ],
  "bytecode": "0x60806040523480156200001157600080fd5b5060405162002b3438038062002b348339810180604052810190808051906020019092919080519060200190929190805182019291906020018051906020019092919080519060200190929190805190602001909291908051906020019092919080519060200190929190805190602001909291905050508860036000018190555085600360020181600019169055508460038001816000191690555083600360050181905550816003600601816000191690555087600360010181600019169055508660036004019080519060200190620000ef929190620001cb565b50806003600c018190555082600160006101000a81548173ffffffffffffffffffffffffffffffffffffffff021916908373ffffffffffffffffffffffffffffffffffffffff160217905550336000806101000a81548173ffffffffffffffffffffffffffffffffffffffff021916908373ffffffffffffffffffffffffffffffffffffffff16021790555033600260006101000a81548173ffffffffffffffffffffffffffffffffffffffff021916908373ffffffffffffffffffffffffffffffffffffffff1602179055505050505050505050506200027a565b828054600181600116156101000203166002900490600052602060002090601f016020900481019282601f106200020e57805160ff19168380011785556200023f565b828001600101855582156200023f579182015b828111156200023e57825182559160200191906001019062000221565b5b5090506200024e919062000252565b5090565b6200027791905b808211156200027357600081600090555060010162000259565b5090565b90565b6128aa806200028a6000396000f3006080604052600436106100f1576000357c0100000000000000000000000000000000000000000000000000000000900463ffffffff168063118b7605146100f657806338f17b1c1461014f5780633d6880f8146101c05780634ae1707d1461020f5780635dee3e9b1461026657806368f60f241461027d5780638aff188f146102ae5780638da5cb5b146102fb578063a3b169a414610352578063b1f6f5ec1461038d578063b518ba29146103e6578063b74cb2db1461052d578063c4a8853514610584578063d1a0be1e146105c9578063d598d4c91461061c578063f172d0b814610673578063ff86aa67146106c6575b600080fd5b34801561010257600080fd5b5061013960048036038101908080359060200190929190803560001916906020019092919080359060200190929190505050610701565b6040518082815260200191505060405180910390f35b34801561015b57600080fd5b5061017e6004803603810190808035600019169060200190929190505050610a28565b604051808273ffffffffffffffffffffffffffffffffffffffff1673ffffffffffffffffffffffffffffffffffffffff16815260200191505060405180910390f35b3480156101cc57600080fd5b506101f9600480360381019080803560001916906020019092919080359060200190929190505050610a5b565b6040518082815260200191505060405180910390f35b34801561021b57600080fd5b50610248600480360381019080803560001916906020019092919080359060200190929190505050610cc5565b60405180826000191660001916815260200191505060405180910390f35b34801561027257600080fd5b5061027b610f76565b005b34801561028957600080fd5b506102ac600480360381019080803560001916906020019092919050505061104a565b005b3480156102ba57600080fd5b506102dd60048036038101908080356000191690602001909291905050506111bd565b60405180826000191660001916815260200191505060405180910390f35b34801561030757600080fd5b50610310611635565b604051808273ffffffffffffffffffffffffffffffffffffffff1673ffffffffffffffffffffffffffffffffffffffff16815260200191505060405180910390f35b34801561035e57600080fd5b5061038b60048036038101908080356000191690602001909291908035906020019092919050505061165a565b005b34801561039957600080fd5b506103d060048036038101908080359060200190929190803560001916906020019092919080359060200190929190505050611ab9565b6040518082815260200191505060405180910390f35b3480156103f257600080fd5b506103fb611dba565b604051808f81526020018e600019166000191681526020018d600019166000191681526020018c60001916600019168152602001806020018b81526020018a600019166000191681526020018973ffffffffffffffffffffffffffffffffffffffff1673ffffffffffffffffffffffffffffffffffffffff1681526020018881526020018781526020018681526020018560001916600019168152602001848152602001836000191660001916815260200182810382528c818151815260200191508051906020019080838360005b838110156104e55780820151818401526020810190506104ca565b50505050905090810190601f1680156105125780820380516001836020036101000a031916815260200191505b509f5050505050505050505050505050505060405180910390f35b34801561053957600080fd5b50610542611ecc565b604051808273ffffffffffffffffffffffffffffffffffffffff1673ffffffffffffffffffffffffffffffffffffffff16815260200191505060405180910390f35b34801561059057600080fd5b506105b36004803603810190808035600019169060200190929190505050611ef2565b6040518082815260200191505060405180910390f35b3480156105d557600080fd5b5061061a600480360381019080803590602001909291908035906020019092919080356000191690602001909291908035600019169060200190929190505050611f17565b005b34801561062857600080fd5b50610631612212565b604051808273ffffffffffffffffffffffffffffffffffffffff1673ffffffffffffffffffffffffffffffffffffffff16815260200191505060405180910390f35b34801561067f57600080fd5b506106c4600480360381019080803590602001909291908035600019169060200190929190803560001916906020019092919080359060200190929190505050612238565b005b3480156106d257600080fd5b506106ff600480360381019080803560001916906020019092919080359060200190929190505050612689565b005b6000336000600160009054906101000a900473ffffffffffffffffffffffffffffffffffffffff1673ffffffffffffffffffffffffffffffffffffffff16631ad43fde836040518263ffffffff167c0100000000000000000000000000000000000000000000000000000000028152600401808273ffffffffffffffffffffffffffffffffffffffff1673ffffffffffffffffffffffffffffffffffffffff168152602001915050602060405180830381600087803b1580156107c357600080fd5b505af11580156107d7573d6000803e3d6000fd5b505050506040513d60208110156107ed57600080fd5b8101908080519060200190929190505050905060011515811515141561098b578460036006015460001916816000191614151561082957600080fd5b7f50756d7057617465726174446973706f73616c00000000000000000000000000600019166003600d0154600019161415156108f3576040517f08c379a00000000000000000000000000000000000000000000000000000000081526004018080602001828103825260218152602001807f5761746572204e6f742044756d70656420617420446973706f73616c2053697481526020017f650000000000000000000000000000000000000000000000000000000000000081525060400191505060405180910390fd5b866003600a01819055507f5761746572446973706f736564000000000000000000000000000000000000006003600d0181600019169055507fd3bdf87fed04816bcf83e7e96290a8559756dcef5682825b953b0715a2c7aa0a8787428860405180858152602001846000191660001916815260200183815260200182815260200194505050505060405180910390a186935050610a1f565b6040517f08c379a000000000000000000000000000000000000000000000000000000000815260040180806020018281038252603f8152602001807f5573657220446f65736e74206578697374206f7220646f65736e27742068617681526020017f65207065726d697373696f6e20666f722074686973206f7065726174696f6e0081525060400191505060405180910390fd5b50509392505050565b60116020528060005260406000206000915054906101000a900473ffffffffffffffffffffffffffffffffffffffff1681565b60008033600360070160009054906101000a900473ffffffffffffffffffffffffffffffffffffffff1673ffffffffffffffffffffffffffffffffffffffff168173ffffffffffffffffffffffffffffffffffffffff16141515610abe57600080fd5b7f4c656176654f696c6669656c6400000000000000000000000000000000000000600019166003600d015460001916141515610b62576040517f08c379a000000000000000000000000000000000000000000000000000000000815260040180806020018281038252601a8152602001807f547275636b206861736e74206c656674204f696c2046696c656400000000000081525060200191505060405180910390fd5b4291506003600b0154600019163373ffffffffffffffffffffffffffffffffffffffff167f900f609021f07b7e6a2109cf57fc4920746705a64032d5c1508ac548ada8e8a06003600101546003800154896003600401888b6040518087600019166000191681526020018660001916600019168152602001856000191660001916815260200180602001848152602001838152602001828103825285818154600181600116156101000203166002900481526020019150805460018160011615610100020316600290048015610c795780601f10610c4e57610100808354040283529160200191610c79565b820191906000526020600020905b815481529060010190602001808311610c5c57829003601f168201915b505097505050505050505060405180910390a37f50756d7057617465726174446973706f73616c000000000000000000000000006003600d018160001916905550819250505092915050565b600080600033600360070160009054906101000a900473ffffffffffffffffffffffffffffffffffffffff1673ffffffffffffffffffffffffffffffffffffffff168173ffffffffffffffffffffffffffffffffffffffff16141515610d2a57600080fd5b60006003600a015414158015610d6c57507f5761746572446973706f73656400000000000000000000000000000000000000600019166003600d015460001916145b1515610de0576040517f08c379a00000000000000000000000000000000000000000000000000000000081526004018080602001828103825260058152602001807f77726f6e6700000000000000000000000000000000000000000000000000000081525060200191505060405180910390fd5b4292506003600b0154600019163373ffffffffffffffffffffffffffffffffffffffff167f20fd8d154954cd9b6e3579b378bd233de09816e265ef5bb640c1ead5ea634db660036001015460038001546003600a01548b601260006003600b015460001916600019168152602001908152602001600020548a8d6040518088600019166000191681526020018760001916600019168152602001868152602001856000191660001916815260200184815260200183815260200182815260200197505050505050505060405180910390a37f4c6561766566726f6d446973706f73616c0000000000000000000000000000006003600d018160001916905550610ee8866111bd565b91506000801916826000191614151515610f6a576040517f08c379a000000000000000000000000000000000000000000000000000000000815260040180806020018281038252601d8152602001807f496e766f696365206e6f74206372656174656420636f72726563746c7900000081525060200191505060405180910390fd5b81935050505092915050565b7f4c6561766566726f6d446973706f73616c000000000000000000000000000000600019166003600d01546000191614151561101a576040517f08c379a00000000000000000000000000000000000000000000000000000000081526004018080602001828103825260188152602001807f43616e7420706572666f726d207468697320616374696f6e000000000000000081525060200191505060405180910390fd5b7f496e766f696365205061696400000000000000000000000000000000000000006003600d018160001916905550565b7f50756d7061744f696c6669656c64000000000000000000000000000000000000600019166003600d0154600019161415156110ee576040517f08c379a00000000000000000000000000000000000000000000000000000000081526004018080602001828103825260108152602001807f54726970206e6f7420737461727465640000000000000000000000000000000081525060200191505060405180910390fd5b610e106003600c0154014210151561112657600a601260008360001916600019168152602001908152602001600020819055506111ba565b611c206003600c0154014210151561115e576008601260008360001916600019168152602001908152602001600020819055506111b9565b612a306003600c01540142101515611196576006601260008360001916600019168152602001908152602001600020819055506111b8565b6004601260008360001916600019168152602001908152602001600020819055505b5b5b50565b6000807f4c6561766566726f6d446973706f73616c000000000000000000000000000000600019166003600d015460001916141515611264576040517f08c379a00000000000000000000000000000000000000000000000000000000081526004018080602001828103825260188152602001807f43616e7420706572666f726d207468697320616374696f6e000000000000000081525060200191505060405180910390fd5b826040516020018082600019166000191681526020019150506040516020818303038152906040526040518082805190602001908083835b6020831015156112c1578051825260208201915060208101905060208303925061129c565b6001836020036101000a038019825116818451168082178552505050505050905001915050604051809103902090503060116000856000191660001916815260200190815260200160002060006101000a81548173ffffffffffffffffffffffffffffffffffffffff021916908373ffffffffffffffffffffffffffffffffffffffff160217905550600260009054906101000a900473ffffffffffffffffffffffffffffffffffffffff1673ffffffffffffffffffffffffffffffffffffffff1663c22d986b846003600b0154846040518463ffffffff167c0100000000000000000000000000000000000000000000000000000000028152600401808460001916600019168152602001836000191660001916815260200182600019166000191681526020019350505050600060405180830381600087803b15801561140857600080fd5b505af115801561141c573d6000803e3d6000fd5b50505050600260009054906101000a900473ffffffffffffffffffffffffffffffffffffffff1673ffffffffffffffffffffffffffffffffffffffff1663a37cca7d6003600b015485306040518463ffffffff167c010000000000000000000000000000000000000000000000000000000002815260040180846000191660001916815260200183600019166000191681526020018273ffffffffffffffffffffffffffffffffffffffff1673ffffffffffffffffffffffffffffffffffffffff1681526020019350505050600060405180830381600087803b15801561150257600080fd5b505af1158015611516573d6000803e3d6000fd5b505050506003600b015460001916600360020154600019167f850685466f2f586b02c3544fef7c221122d56dee93fb1b11a83f6850e1d220ef60036000015460036001015460038001546003600801546003600901546003600a01546003600501546003600d01548d601260006003600b015460001916600019168152602001908152602001600020548d42604051808d81526020018c600019166000191681526020018b600019166000191681526020018a81526020018981526020018881526020018781526020018660001916600019168152602001856000191660001916815260200184815260200183600019166000191681526020018281526020019c5050505050505050505050505060405180910390a380915050919050565b6000809054906101000a900473ffffffffffffffffffffffffffffffffffffffff1681565b60006003600b01546000600260009054906101000a900473ffffffffffffffffffffffffffffffffffffffff1673ffffffffffffffffffffffffffffffffffffffff1663d2091967836040518263ffffffff167c0100000000000000000000000000000000000000000000000000000000028152600401808260001916600019168152602001915050602060405180830381600087803b1580156116fd57600080fd5b505af1158015611711573d6000803e3d6000fd5b505050506040513d602081101561172757600080fd5b810190808051906020019092919050505090506000151581151514151561174d57600080fd5b33600360070160009054906101000a900473ffffffffffffffffffffffffffffffffffffffff1673ffffffffffffffffffffffffffffffffffffffff168173ffffffffffffffffffffffffffffffffffffffff161415156117ad57600080fd5b7f6163636570746564000000000000000000000000000000000000000000000000600019166003600d015460001916141515611851576040517f08c379a00000000000000000000000000000000000000000000000000000000081526004018080602001828103825260118152602001807f54726970204e6f7420416363657074656400000000000000000000000000000081525060200191505060405180910390fd5b429350600260009054906101000a900473ffffffffffffffffffffffffffffffffffffffff1673ffffffffffffffffffffffffffffffffffffffff166399e7ad5a6003600b015488306040518463ffffffff167c010000000000000000000000000000000000000000000000000000000002815260040180846000191660001916815260200183600019166000191681526020018273ffffffffffffffffffffffffffffffffffffffff1673ffffffffffffffffffffffffffffffffffffffff1681526020019350505050600060405180830381600087803b15801561193657600080fd5b505af115801561194a573d6000803e3d6000fd5b505050506003600b0154600019163373ffffffffffffffffffffffffffffffffffffffff167fcb0654cfa7c5317373f1a2a91865c3cd2470aa8e604b29e964c87bb2af7af84f60036001015460038001548a60036004018a8c6040518087600019166000191681526020018660001916600019168152602001856000191660001916815260200180602001848152602001838152602001828103825285818154600181600116156101000203166002900481526020019150805460018160011615610100020316600290048015611a625780601f10611a3757610100808354040283529160200191611a62565b820191906000526020600020905b815481529060010190602001808311611a4557829003601f168201915b505097505050505050505060405180910390a37f50756d7061744f696c6669656c640000000000000000000000000000000000006003600d018160001916905550611ab16003600b015461104a565b505050505050565b6000336000600160009054906101000a900473ffffffffffffffffffffffffffffffffffffffff1673ffffffffffffffffffffffffffffffffffffffff1663544e3fa0836040518263ffffffff167c0100000000000000000000000000000000000000000000000000000000028152600401808273ffffffffffffffffffffffffffffffffffffffff1673ffffffffffffffffffffffffffffffffffffffff168152602001915050602060405180830381600087803b158015611b7b57600080fd5b505af1158015611b8f573d6000803e3d6000fd5b505050506040513d6020811015611ba557600080fd5b81019080805190602001909291905050509050600115158115151415611d1d5784600360060154600019168160001916141515611be157600080fd5b7f50756d7061744f696c6669656c64000000000000000000000000000000000000600019166003600d015460001916141515611c85576040517f08c379a000000000000000000000000000000000000000000000000000000000815260040180806020018281038252601d8152602001807f5761746572204e6f742050756d706564206174204f696c204669656c6400000081525060200191505060405180910390fd5b866003600901819055507f576174657250756d7065640000000000000000000000000000000000000000006003600d0181600019169055507f85e084d5606606c55553e1ce61796339f52523a5c97278b476fb3c9337cf805a8787428860405180858152602001846000191660001916815260200183815260200182815260200194505050505060405180910390a186935050611db1565b6040517f08c379a000000000000000000000000000000000000000000000000000000000815260040180806020018281038252603f8152602001807f5573657220446f65736e74206578697374206f7220646f65736e27742068617681526020017f65207065726d697373696f6e20666f722074686973206f7065726174696f6e0081525060400191505060405180910390fd5b50509392505050565b6003806000015490806001015490806002015490806003015490806004018054600181600116156101000203166002900480601f016020809104026020016040519081016040528092919081815260200182805460018160011615610100020316600290048015611e6c5780601f10611e4157610100808354040283529160200191611e6c565b820191906000526020600020905b815481529060010190602001808311611e4f57829003601f168201915b5050505050908060050154908060060154908060070160009054906101000a900473ffffffffffffffffffffffffffffffffffffffff169080600801549080600901549080600a01549080600b01549080600c01549080600d015490508e565b600260009054906101000a900473ffffffffffffffffffffffffffffffffffffffff1681565b6000601260008360001916600019168152602001908152602001600020549050919050565b336000600160009054906101000a900473ffffffffffffffffffffffffffffffffffffffff1673ffffffffffffffffffffffffffffffffffffffff1663bce89b4c836040518263ffffffff167c0100000000000000000000000000000000000000000000000000000000028152600401808273ffffffffffffffffffffffffffffffffffffffff1673ffffffffffffffffffffffffffffffffffffffff168152602001915050602060405180830381600087803b158015611fd757600080fd5b505af1158015611feb573d6000803e3d6000fd5b505050506040513d602081101561200157600080fd5b810190808051906020019092919050505090506001151581151514156121765760006003600d0154600019161415156120a2576040517f08c379a000000000000000000000000000000000000000000000000000000000815260040180806020018281038252601b8152602001807f43616e2774204d6f6469667920616e204163746976652054726970000000000081525060200191505060405180910390fd5b82600019166003600601546000191614156120dd57856003600001819055508460036005018190555083600380018160001916905550612171565b6040517f08c379a000000000000000000000000000000000000000000000000000000000815260040180806020018281038252602c8152602001807f596f752061726520747279696e6720746f206d6f646966792061206e6f6e2d6581526020017f78697374616e742074726970000000000000000000000000000000000000000081525060400191505060405180910390fd5b61220a565b6040517f08c379a00000000000000000000000000000000000000000000000000000000081526004018080602001828103825260228152602001807f5761737465204d616e6167656d656e74205573657220446f65736e742065786981526020017f737400000000000000000000000000000000000000000000000000000000000081525060400191505060405180910390fd5b505050505050565b600160009054906101000a900473ffffffffffffffffffffffffffffffffffffffff1681565b8160036006015460001916816000191614151561225457600080fd5b60006003600d0154600019161415156122d5576040517f08c379a000000000000000000000000000000000000000000000000000000000815260040180806020018281038252600d8152602001807f54726970204e6f7420467265650000000000000000000000000000000000000081525060200191505060405180910390fd5b33600360070160006101000a81548173ffffffffffffffffffffffffffffffffffffffff021916908373ffffffffffffffffffffffffffffffffffffffff160217905550836003600b018160001916905550846003600801819055507f61636365707465640000000000000000000000000000000000000000000000006003600d018160001916905550600260009054906101000a900473ffffffffffffffffffffffffffffffffffffffff1673ffffffffffffffffffffffffffffffffffffffff166375a4e40c84306040518363ffffffff167c01000000000000000000000000000000000000000000000000000000000281526004018083600019166000191681526020018273ffffffffffffffffffffffffffffffffffffffff1673ffffffffffffffffffffffffffffffffffffffff16815260200192505050602060405180830381600087803b15801561242c57600080fd5b505af1158015612440573d6000803e3d6000fd5b505050506040513d602081101561245657600080fd5b810190808051906020019092919050505050600260009054906101000a900473ffffffffffffffffffffffffffffffffffffffff1673ffffffffffffffffffffffffffffffffffffffff1663a6edfb86846040518263ffffffff167c0100000000000000000000000000000000000000000000000000000000028152600401808260001916600019168152602001915050600060405180830381600087803b15801561250157600080fd5b505af1158015612515573d6000803e3d6000fd5b50505050600260009054906101000a900473ffffffffffffffffffffffffffffffffffffffff1673ffffffffffffffffffffffffffffffffffffffff16631b5699938585306040518463ffffffff167c010000000000000000000000000000000000000000000000000000000002815260040180846000191660001916815260200183600019166000191681526020018273ffffffffffffffffffffffffffffffffffffffff1673ffffffffffffffffffffffffffffffffffffffff1681526020019350505050600060405180830381600087803b1580156125f657600080fd5b505af115801561260a573d6000803e3d6000fd5b505050507f5a95fc4ef8b4db4cda451d9d37b0336fa5960cba835400dcbaa2a7cad045fa8685858560036005015442876040518087815260200186600019166000191681526020018560001916600019168152602001848152602001838152602001828152602001965050505050505060405180910390a15050505050565b600033600360070160009054906101000a900473ffffffffffffffffffffffffffffffffffffffff1673ffffffffffffffffffffffffffffffffffffffff168173ffffffffffffffffffffffffffffffffffffffff161415156126eb57600080fd5b60006003600901541415801561272d57507f576174657250756d706564000000000000000000000000000000000000000000600019166003600d015460001916145b15156127a1576040517f08c379a00000000000000000000000000000000000000000000000000000000081526004018080602001828103825260178152602001807f576174657246696c6c6564206e6f74205570646174656400000000000000000081525060200191505060405180910390fd5b4291506003600b0154600019163373ffffffffffffffffffffffffffffffffffffffff167f29fcb7a081213c4e59ce0c560a55d83c6f352d3162076c619e514bae3f0e1981600360010154600380015460036009015489888a60405180876000191660001916815260200186600019166000191681526020018581526020018460001916600019168152602001838152602001828152602001965050505050505060405180910390a37f4c656176654f696c6669656c64000000000000000000000000000000000000006003600d018160001916905550505050505600a165627a7a72305820838c1af0462cc5af869db33803bba7275145ce6ead6d3948c3f8bf21c95b77cc0029",
  "source": "pragma solidity ^0.4.24;\n\nimport \"./Request.sol\";\nimport \"./Services.sol\";\n\n\ncontract Trip{\n    \n    event TripAccepted(uint _maxcapacity,bytes32 _truckId,bytes32 _tripId,uint _amount,uint time,uint reqtime);\n    event PumpWateratOilfield(address indexed _driver,bytes32 indexed _truckId,bytes32 _fieldId,bytes32 _disposalTankId,bytes32 _tripId,string latlon,uint _time,uint reqtime);\n    event LeavefromOilfield(address indexed _driver,bytes32 indexed _truckId,bytes32 _fieldId,bytes32 _disposalTankId,uint _waterfilled,bytes32 _tripId,uint _time,uint reqtime);\n    event PumpWateratDisposal(address indexed _driver,bytes32 indexed _truckId,bytes32 _fieldId,bytes32 _disposalTankId,bytes32 _tripId,string latlon,uint _time,uint reqtime);\n    event LeavefromDisposal(address indexed _driver,bytes32 indexed _truckId,bytes32 _fieldId,bytes32 _disposalTankId,uint _waterdisposed,bytes32 _tripId,uint _repScore,uint _time,uint reqtime);\n    event InvoiceGenerated(uint _tankCapacity,bytes32 _fieldId,bytes32 indexed _tankId,bytes32  _disposalTankId,uint _maxcapacity,uint _waterfilled,uint _waterdisposed,uint _amount,bytes32 indexed _truckId,bytes32 _Status,bytes32 _tripId,uint _repScore,bytes32 _invoiceno,uint time);\n    event Waterfilled(uint _waterfilled,bytes32 _tripId,uint _time,uint reqtime);\n    event Waterdisposed(uint _waterdisposed,bytes32 _tripId,uint _time,uint reqtime);\n    \n    address public owner;\n    Services public service;\n    Request public requests ;\n    \n    \n    constructor(uint _tankCapacity,bytes32 _fieldId,string _latlon,bytes32 _tankId,bytes32 _disposalTankId,uint _amount,address _servicecontract,bytes32 _tripId,uint _reqtime) public {\n        trip.tankCapacity =_tankCapacity;\n        trip.tankId = _tankId;\n        trip.disposalTankId = _disposalTankId;\n        trip.amount = _amount;\n        trip.tripId = _tripId;\n        trip.fieldId = _fieldId;\n        trip.latlon = _latlon;\n        trip.reqtime = _reqtime;\n        service = Services(_servicecontract);\n        owner = msg.sender;\n        requests = Request(msg.sender);\n    }\n    \n    struct TripDetails{\n        uint  tankCapacity;\n        bytes32 fieldId;\n        bytes32 tankId;\n        bytes32 disposalTankId;\n        string latlon;\n        uint amount;\n        bytes32 tripId;\n        address driver;\n        uint maxcapacity;\n        uint waterfilled;\n        uint waterdisposed;\n        bytes32 truckId;\n        uint reqtime;\n        bytes32 Status;\n    }\n    \n    \n    TripDetails public trip;\n    \n    mapping(bytes32=>address) public InvoicesCreated;\n    mapping(bytes32 => uint) Reput;\n    \n    modifier checkSenderAdd(address _sender){\n        \n        bool _res = service.checkStorage(_sender);\n        \n        if(_res==true){\n            _;\n        }\n        else{\n            revert(\"User Doesnt exist or doesn't have permission for this operation\");\n        }\n    }\n    \n    modifier checkDisposalAdd(address _sender){\n        \n        bool _res = service.checkDisposal(_sender);\n        \n        if(_res==true){\n            _;\n        }\n        else{\n            revert(\"User Doesnt exist or doesn't have permission for this operation\");\n        }\n    }\n    \n    modifier checkDriver(address _driver){\n        \n        require(_driver == trip.driver);\n        _;\n    }\n    \n    modifier checkTrip(bytes32 _tripId)\n    {\n        require(_tripId == trip.tripId);\n        _;\n    }\n\n    modifier checkdriverstatus(bytes32 _truckId)\n    {\n        bool _res = requests.checkTruckStatus(_truckId);\n        require(_res == false);\n        _;\n        \n    }\n    modifier checkSender(address _sender){\n        \n         bool _res = service.checkOptimizer(_sender);\n        \n        if(_res==true){\n            _;\n        }\n        else{\n            revert(\"Waste Management User Doesnt exist\");\n        }\n        \n    }\n    \n    modifier checkPump(){\n        require(trip.Status == bytes32(\"accepted\"),\"Trip Not Accepted\");\n        _;\n    }\n    \n    modifier checkLeave(){\n        require(trip.waterfilled != 0 && trip.Status == bytes32(\"WaterPumped\"),\"WaterFilled not Updated\");\n        _;\n    }\n    \n    modifier checkDisp(){\n         require(trip.Status == bytes32(\"LeaveOilfield\"),\"Truck hasnt left Oil Filed\");\n         _;\n    }\n    \n    modifier checkLeaveDisp(){\n        require(trip.waterdisposed != 0 && trip.Status == bytes32(\"WaterDisposed\"),\"wrong\");\n        _;\n    }\n    \n    modifier checkInvoice(){\n         require(trip.Status == bytes32(\"LeavefromDisposal\"),\"Cant perform this action\");\n         _;\n    }\n    \n    modifier checkStatus()\n    {\n     require(trip.Status == bytes32(\"PumpatOilfield\"),\"Water Not Pumped at Oil Field\");\n     _;\n     \n    }\n    \n    modifier checkStatusDisp()\n    {\n         require(trip.Status == bytes32(\"PumpWateratDisposal\"),\"Water Not Dumped at Disposal Site\");\n         _;\n    }\n    \n    modifier checkReputStatus()\n    {\n        require(trip.Status == bytes32(\"PumpatOilfield\"),\"Trip not started\");\n        _;\n    }\n    \n    function modifyTrip(uint _capacity,uint _amount,bytes32 _disposaltankid,bytes32 _tripId) public checkSender(msg.sender)\n    {\n      \n      require(trip.Status == \"\" , \"Can't Modify an Active Trip\");  \n      if(trip.tripId == _tripId) { \n      trip.tankCapacity = _capacity;\n      trip.amount = _amount;\n      trip.disposalTankId = _disposaltankid;\n      }\n      \n      else{\n          revert(\"You are trying to modify a non-existant trip\");\n      }\n        \n    }\n    \n    function tripAccept(uint _maxcapacity,bytes32 _truckId,bytes32 _tripId,uint reqtime) public checkTrip(_tripId) {  \n        \n        require(trip.Status == \"\",\"Trip Not Free\");\n        trip.driver = msg.sender;\n        trip.truckId = _truckId;\n        trip.maxcapacity = _maxcapacity;\n        trip.Status = bytes32(\"accepted\");\n        requests.deleteOpenTrips(_tripId,address(this));\n        requests.acceptedTrips(_tripId);\n        requests.setdriverstatus(_truckId,_tripId,address(this));\n        emit TripAccepted(_maxcapacity,_truckId,_tripId,trip.amount,block.timestamp,reqtime);\n    }\n    \n    function PumpatOilfield(bytes32 _tripId,uint reqtime) public checkdriverstatus(trip.truckId) checkDriver(msg.sender) checkPump()\n    {\n        uint time = block.timestamp;\n        requests.TripStarted(trip.truckId,_tripId,address(this));\n        emit PumpWateratOilfield(msg.sender,trip.truckId,trip.fieldId,trip.disposalTankId,_tripId,trip.latlon,time,reqtime);\n        trip.Status = bytes32(\"PumpatOilfield\");\n        reputationScore(trip.truckId);\n        \n    }\n    \n    function WaterPumped(uint _waterfilled,bytes32 _tripId,uint reqtime) public checkSenderAdd(msg.sender) checkTrip(_tripId) checkStatus() returns(uint)\n    {\n     trip.waterfilled = _waterfilled;\n     trip.Status = bytes32(\"WaterPumped\");\n     emit Waterfilled(_waterfilled,_tripId,block.timestamp,reqtime);\n     return _waterfilled;\n        \n    }\n    \n    function LeaveOilfield(bytes32 _tripId,uint reqtime) public checkDriver(msg.sender) checkLeave()\n    {\n        uint time = block.timestamp;\n        emit LeavefromOilfield(msg.sender,trip.truckId,trip.fieldId,trip.disposalTankId,trip.waterfilled,_tripId,time,reqtime);\n        trip.Status = bytes32(\"LeaveOilfield\");\n        \n    }\n    \n    function PumpatDisposal(bytes32 _tripId,uint reqtime) public  checkDriver(msg.sender) checkDisp() returns(uint) \n    {\n        uint time = block.timestamp;\n        emit PumpWateratDisposal(msg.sender,trip.truckId,trip.fieldId,trip.disposalTankId,_tripId,trip.latlon,time,reqtime);\n        trip.Status = bytes32(\"PumpWateratDisposal\");\n        return time;\n        \n    }\n    \n    function WaterDisposed(uint _waterdisposed,bytes32 _tripId,uint reqtime) public checkDisposalAdd(msg.sender) checkTrip(_tripId) checkStatusDisp() returns(uint)\n    {\n    \n     trip.waterdisposed = _waterdisposed;\n     trip.Status = bytes32(\"WaterDisposed\");\n     emit Waterdisposed(_waterdisposed,_tripId,block.timestamp,reqtime);\n     return _waterdisposed;\n        \n    }\n    \n    \n    function LeaveDisposalSite(bytes32 _tripId,uint reqtime) public  checkDriver(msg.sender) checkLeaveDisp() returns(bytes32)\n    {\n        uint time = block.timestamp;\n        emit LeavefromDisposal(msg.sender,trip.truckId,trip.fieldId,trip.disposalTankId,trip.waterdisposed,_tripId,Reput[trip.truckId],time,reqtime);\n        trip.Status = bytes32(\"LeavefromDisposal\");\n        bytes32 INVOICE = createInvoice(_tripId);\n        require(INVOICE != bytes32(\"\"), \"Invoice not created correctly\");\n        return INVOICE;\n    }\n    \n    function createInvoice(bytes32 _tripId) checkInvoice() public returns(bytes32)\n    {\n        bytes32 invoice_no =  keccak256(abi.encodePacked(_tripId));\n        InvoicesCreated[_tripId] = address(this);\n        requests.CompletedTrip(_tripId,trip.truckId,invoice_no);\n        requests.getInvoicesforDriver(trip.truckId,_tripId,address(this));\n        emit InvoiceGenerated(trip.tankCapacity,trip.fieldId,trip.tankId,trip.disposalTankId,trip.maxcapacity,trip.waterfilled,trip.waterdisposed,trip.amount,trip.truckId,trip.Status,_tripId,Reput[trip.truckId],invoice_no,block.timestamp);\n        return invoice_no;\n    }\n    \n    function invoicePaid() checkInvoice() public\n    {\n        \n        trip.Status = bytes32(\"Invoice Paid\");\n    }\n    \n    function reputationScore(bytes32 _truckId) public checkReputStatus()\n    {\n       if(block.timestamp >= trip.reqtime+3600)\n       {\n           Reput[_truckId] = 10;\n       }\n       else if(block.timestamp >= trip.reqtime+(3600*2))\n       {\n           Reput[_truckId] = 8;\n       }\n       else if(block.timestamp >= trip.reqtime+(3600*3))\n       {\n           Reput[_truckId] = 6;\n       }\n       else \n       {\n           Reput[_truckId] =4 ;\n       }\n    }\n    \n    function getReputforTrip(bytes32 _truckId) public view returns(uint)\n    {\n        return Reput[_truckId];\n    }\n}\n",
  "sourcePath": "/home/rakshamp/Desktop/soliditycontracts/waste-water-management/blockchain/contracts/Trip.sol",
  "compiler": {
    "name": "solc",
    "version": "0.4.24+commit.e67f0147.Emscripten.clang"
  },
  "schemaVersion": "2.0.0",
  "updatedAt": "2018-08-10T06:09:13.487Z"
}